{"contracts/MetricChallengeDAO.sol":{"MetricChallengeDAO":{"abi":[{"inputs":[{"internalType":"uint256","name":"_fixedStakeAmount","type":"uint256"}],"stateMutability":"nonpayable","type":"constructor"},{"inputs":[],"name":"InsufficientPayment","type":"error"},{"inputs":[],"name":"InsufficientUpdateFee","type":"error"},{"inputs":[],"name":"InvalidParameters","type":"error"},{"inputs":[],"name":"InvalidPrice","type":"error"},{"inputs":[],"name":"MetricAlreadyResolved","type":"error"},{"inputs":[],"name":"MetricNotFound","type":"error"},{"inputs":[{"internalType":"address","name":"owner","type":"address"}],"name":"OwnableInvalidOwner","type":"error"},{"inputs":[{"internalType":"address","name":"account","type":"address"}],"name":"OwnableUnauthorizedAccount","type":"error"},{"inputs":[],"name":"PriceTooStale","type":"error"},{"inputs":[],"name":"ReentrancyGuardReentrantCall","type":"error"},{"inputs":[],"name":"StakingPeriodOver","type":"error"},{"inputs":[],"name":"TransferFailed","type":"error"},{"inputs":[],"name":"UnsupportedCoin","type":"error"},{"anonymous":false,"inputs":[{"indexed":true,"internalType":"uint256","name":"metricID","type":"uint256"},{"indexed":false,"internalType":"string","name":"winningSide","type":"string"}],"name":"MetricResolved","type":"event"},{"anonymous":false,"inputs":[{"indexed":true,"internalType":"uint256","name":"metricID","type":"uint256"},{"indexed":true,"internalType":"address","name":"submitter","type":"address"}],"name":"MetricSubmitted","type":"event"},{"anonymous":false,"inputs":[{"indexed":true,"internalType":"address","name":"previousOwner","type":"address"},{"indexed":true,"internalType":"address","name":"newOwner","type":"address"}],"name":"OwnershipTransferred","type":"event"},{"anonymous":false,"inputs":[{"indexed":true,"internalType":"address","name":"staker","type":"address"},{"indexed":false,"internalType":"uint256","name":"amount","type":"uint256"}],"name":"RewardDistributed","type":"event"},{"anonymous":false,"inputs":[{"indexed":false,"internalType":"uint256","name":"newAmount","type":"uint256"}],"name":"StakeAmountUpdated","type":"event"},{"anonymous":false,"inputs":[{"indexed":true,"internalType":"uint256","name":"metricID","type":"uint256"},{"indexed":true,"internalType":"address","name":"staker","type":"address"},{"indexed":false,"internalType":"string","name":"side","type":"string"}],"name":"Staked","type":"event"},{"stateMutability":"payable","type":"fallback"},{"inputs":[{"internalType":"address","name":"","type":"address"}],"name":"coinToPriceFeedId","outputs":[{"internalType":"bytes32","name":"","type":"bytes32"}],"stateMutability":"view","type":"function"},{"inputs":[{"internalType":"uint256","name":"amount","type":"uint256"}],"name":"emergencyWithdraw","outputs":[],"stateMutability":"nonpayable","type":"function"},{"inputs":[],"name":"fixedStakeAmount","outputs":[{"internalType":"uint256","name":"","type":"uint256"}],"stateMutability":"view","type":"function"},{"inputs":[],"name":"getContractBalance","outputs":[{"internalType":"uint256","name":"","type":"uint256"}],"stateMutability":"view","type":"function"},{"inputs":[{"internalType":"uint256","name":"metricID","type":"uint256"}],"name":"getMetric","outputs":[{"internalType":"uint256","name":"id","type":"uint256"},{"internalType":"uint256","name":"expectedLossPercent","type":"uint256"},{"internalType":"uint256","name":"duration","type":"uint256"},{"internalType":"uint256","name":"startTime","type":"uint256"},{"internalType":"enum MetricChallengeDAO.MetricStatus","name":"status","type":"uint8"},{"internalType":"uint256","name":"bountyCollateral","type":"uint256"},{"internalType":"uint256","name":"stakesInFavorCount","type":"uint256"},{"internalType":"uint256","name":"stakesAgainstCount","type":"uint256"}],"stateMutability":"view","type":"function"},{"inputs":[{"internalType":"uint256","name":"metricID","type":"uint256"}],"name":"getStakesAgainst","outputs":[{"components":[{"internalType":"address","name":"staker","type":"address"},{"internalType":"uint256","name":"timestamp","type":"uint256"}],"internalType":"struct MetricChallengeDAO.Stake[]","name":"","type":"tuple[]"}],"stateMutability":"view","type":"function"},{"inputs":[{"internalType":"uint256","name":"metricID","type":"uint256"}],"name":"getStakesInFavor","outputs":[{"components":[{"internalType":"address","name":"staker","type":"address"},{"internalType":"uint256","name":"timestamp","type":"uint256"}],"internalType":"struct MetricChallengeDAO.Stake[]","name":"","type":"tuple[]"}],"stateMutability":"view","type":"function"},{"inputs":[{"internalType":"uint256","name":"metricID","type":"uint256"}],"name":"isStakingActive","outputs":[{"internalType":"bool","name":"","type":"bool"}],"stateMutability":"view","type":"function"},{"inputs":[{"internalType":"uint256","name":"","type":"uint256"}],"name":"metrics","outputs":[{"internalType":"uint256","name":"id","type":"uint256"},{"internalType":"address","name":"coinAddress","type":"address"},{"internalType":"uint256","name":"expectedLossPercent","type":"uint256"},{"internalType":"uint256","name":"duration","type":"uint256"},{"internalType":"uint256","name":"startTime","type":"uint256"},{"internalType":"enum MetricChallengeDAO.MetricStatus","name":"status","type":"uint8"},{"internalType":"uint256","name":"bountyCollateral","type":"uint256"}],"stateMutability":"view","type":"function"},{"inputs":[],"name":"nextMetricID","outputs":[{"internalType":"uint256","name":"","type":"uint256"}],"stateMutability":"view","type":"function"},{"inputs":[],"name":"owner","outputs":[{"internalType":"address","name":"","type":"address"}],"stateMutability":"view","type":"function"},{"inputs":[],"name":"pyth","outputs":[{"internalType":"contract IPyth","name":"","type":"address"}],"stateMutability":"view","type":"function"},{"inputs":[{"internalType":"address","name":"coinAddress","type":"address"}],"name":"removeSupportedCoin","outputs":[],"stateMutability":"nonpayable","type":"function"},{"inputs":[],"name":"renounceOwnership","outputs":[],"stateMutability":"nonpayable","type":"function"},{"inputs":[{"internalType":"uint256","name":"metricID","type":"uint256"}],"name":"resolveMetric","outputs":[],"stateMutability":"nonpayable","type":"function"},{"inputs":[{"internalType":"address","name":"coinAddress","type":"address"},{"internalType":"bytes32","name":"priceFeedId","type":"bytes32"}],"name":"setSupportedCoin","outputs":[],"stateMutability":"nonpayable","type":"function"},{"inputs":[{"internalType":"uint256","name":"metricID","type":"uint256"}],"name":"stakeAgainst","outputs":[],"stateMutability":"nonpayable","type":"function"},{"inputs":[{"internalType":"uint256","name":"metricID","type":"uint256"}],"name":"stakeInFavor","outputs":[],"stateMutability":"nonpayable","type":"function"},{"inputs":[{"internalType":"uint256","name":"expectedLossPercent","type":"uint256"},{"internalType":"uint256","name":"duration","type":"uint256"},{"internalType":"uint256","name":"bountyCollateral","type":"uint256"}],"name":"submitMetric","outputs":[{"internalType":"uint256","name":"","type":"uint256"}],"stateMutability":"payable","type":"function"},{"inputs":[],"name":"totalContractBalance","outputs":[{"internalType":"uint256","name":"","type":"uint256"}],"stateMutability":"view","type":"function"},{"inputs":[{"internalType":"address","name":"newOwner","type":"address"}],"name":"transferOwnership","outputs":[],"stateMutability":"nonpayable","type":"function"},{"inputs":[{"internalType":"uint256","name":"newAmount","type":"uint256"}],"name":"updateFixedStakeAmount","outputs":[],"stateMutability":"nonpayable","type":"function"},{"stateMutability":"payable","type":"receive"}],"evm":{"bytecode":{"linkReferences":{},"object":"60a060405234801561001057600080fd5b5060405161175d38038061175d83398101604081905261002f916100db565b6001600055338061005a57604051631e4fbdf760e01b81526000600482015260240160405180910390fd5b61006381610089565b50600160035560045573dd24f84d36bf92c65f92307595c6b99d36b6f8c46080526100f4565b600180546001600160a01b038381166001600160a01b0319831681179093556040519116919082907f8be0079c531659141344cd1fd0a4f28419497f9722a3daafe3b4186f6b6457e090600090a35050565b6000602082840312156100ed57600080fd5b5051919050565b6080516116476101166000396000818161049c0152610cf901526116476000f3fe6080604052600436106101395760003560e01c80636f9fb98a116100ab5780638da5cb5b1161006f5780638da5cb5b146103e2578063b814181014610414578063bac03cd714610434578063dc6e44951461044a578063f2fde38b1461046a578063f98d06f01461048a57610158565b80636f9fb98a1461035a578063715018a61461036d5780637776eab6146103825780637cabd293146103a25780637fe09c7d146103c257610158565b80633937066c116100fd5780633937066c146102405780635312ea8e14610256578063582bd8f1146102765780635af01b91146102aa5780636d9aac62146102c05780636ec1b0411461033a57610158565b806304b8ba5b1461016a57806309eea131146101a057806313f2721b146101d05780631547d5c6146101f2578063312c9e871461022d57610158565b3661015857346005600082825461015091906112ab565b925050819055005b346005600082825461015091906112ab565b34801561017657600080fd5b5061018a6101853660046112c4565b6104be565b60405161019791906112dd565b60405180910390f35b3480156101ac57600080fd5b506101c06101bb3660046112c4565b61056e565b6040519015158152602001610197565b3480156101dc57600080fd5b506101f06101eb366004611351565b6105ee565b005b3480156101fe57600080fd5b5061021f61020d366004611351565b60066020526000908152604090205481565b604051908152602001610197565b61021f61023b36600461136c565b610610565b34801561024c57600080fd5b5061021f60035481565b34801561026257600080fd5b506101f06102713660046112c4565b6106ef565b34801561028257600080fd5b506102966102913660046112c4565b6107a1565b6040516101979897969594939291906113d0565b3480156102b657600080fd5b5061021f60045481565b3480156102cc57600080fd5b506103276102db3660046112c4565b6002602081905260009182526040909120805460018201549282015460038301546004840154600585015460069095015493956001600160a01b03169492939192909160ff9091169087565b604051610197979695949392919061141a565b34801561034657600080fd5b506101f06103553660046112c4565b610827565b34801561036657600080fd5b504761021f565b34801561037957600080fd5b506101f06109aa565b34801561038e57600080fd5b506101f061039d3660046112c4565b6109be565b3480156103ae57600080fd5b506101f06103bd3660046112c4565b610b2d565b3480156103ce57600080fd5b506101f06103dd366004611464565b610b91565b3480156103ee57600080fd5b506001546001600160a01b03165b6040516001600160a01b039091168152602001610197565b34801561042057600080fd5b506101f061042f3660046112c4565b610be7565b34801561044057600080fd5b5061021f60055481565b34801561045657600080fd5b5061018a6104653660046112c4565b61110b565b34801561047657600080fd5b506101f0610485366004611351565b6111ac565b34801561049657600080fd5b506103fc7f000000000000000000000000000000000000000000000000000000000000000081565b6060818015806104d057506003548110155b156104ee57604051637313c09d60e01b815260040160405180910390fd5b600083815260026020908152604080832060070180548251818502810185019093528083529193909284015b82821015610562576000848152602090819020604080518082019091526002850290910180546001600160a01b0316825260019081015482840152908352909201910161051a565b50505050915050919050565b60008180158061058057506003548110155b1561059e57604051637313c09d60e01b815260040160405180910390fd5b6000838152600260205260409020600381015460048201546105c091906112ab565b421080156105e657506000600582015460ff1660018111156105e4576105e4611398565b145b949350505050565b6105f66111ec565b6001600160a01b0316600090815260066020526040812055565b600061061a611219565b612710841180610628575082155b1561064657604051630e52390960e41b815260040160405180910390fd5b600380546000818152600260208190526040822083815590810188905580840187905542600482015560058101805460ff1916905560068101869055835492939092916106928361148e565b919050555083600560008282546106a991906112ab565b9091555050604051339083907f476f7bdb10d30e2de6d06e5d144c76d3963482c10f097a5048c401c84d1a102590600090a35090506106e86001600055565b9392505050565b6106f76111ec565b478111156107185760405163cd1c886760e01b815260040160405180910390fd5b600061072c6001546001600160a01b031690565b6001600160a01b03168260405160006040518083038185875af1925050503d8060008114610776576040519150601f19603f3d011682016040523d82523d6000602084013e61077b565b606091505b505090508061079d576040516312171d8360e31b815260040160405180910390fd5b5050565b600080808080808080888015806107ba57506003548110155b156107d857604051637313c09d60e01b815260040160405180910390fd5b50505060009687525050600260208190526040909520805495810154600382015460048301546005840154600685015460078601546008909601549a9b949a93995091975060ff169550935090565b61082f611219565b8080158061083f57506003548110155b1561085d57604051637313c09d60e01b815260040160405180910390fd5b600082815260026020526040902060038101546004820154849291610881916112ab565b42106108a0576040516376d3a56d60e01b815260040160405180910390fd5b836000808281526002602052604090206005015460ff1660018111156108c8576108c8611398565b146108e657604051632d2d860f60e11b815260040160405180910390fd5b60008581526002602081815260408084208151808301835233808252428286019081526007808501805460018082018355918b529988902094519990980290930180546001600160a01b0319166001600160a01b039099169890981788555196909501959095558151838152928301949094526624b72330bb37b960c91b9082015287907f245f82ed859b3e07a5d069ab3f24df4501aee89bf3fbd10d605980e17c115bef906060015b60405180910390a350505050506109a76001600055565b50565b6109b26111ec565b6109bc6000611243565b565b6109c6611219565b808015806109d657506003548110155b156109f457604051637313c09d60e01b815260040160405180910390fd5b600082815260026020526040902060038101546004820154849291610a18916112ab565b4210610a37576040516376d3a56d60e01b815260040160405180910390fd5b836000808281526002602052604090206005015460ff166001811115610a5f57610a5f611398565b14610a7d57604051632d2d860f60e11b815260040160405180910390fd5b600085815260026020818152604080842081518083018352338082524282860190815260088401805460018082018355918a529887902093519890970290920180546001600160a01b0319166001600160a01b03909816979097178755905195909401949094558051828152600792810192909252661059d85a5b9cdd60ca1b9082015287907f245f82ed859b3e07a5d069ab3f24df4501aee89bf3fbd10d605980e17c115bef90606001610990565b610b356111ec565b80600003610b5657604051630e52390960e41b815260040160405180910390fd5b60048190556040518181527fc3869fc4914caa4e69064c93dc69ce5b5b73da5a26717b551e7b6b23f2db9b1b9060200160405180910390a150565b610b996111ec565b6001600160a01b0382161580610bad575080155b15610bcb57604051630e52390960e41b815260040160405180910390fd5b6001600160a01b03909116600090815260066020526040902055565b610bef611219565b80801580610bff57506003548110155b15610c1d57604051637313c09d60e01b815260040160405180910390fd5b816000808281526002602052604090206005015460ff166001811115610c4557610c45611398565b14610c6357604051632d2d860f60e11b815260040160405180910390fd5b600083815260026020526040902060038101546004820154610c8591906112ab565b421015610ca5576040516376d3a56d60e01b815260040160405180910390fd5b60018101546001600160a01b031660009081526006602052604090205480610ce057604051633312127960e01b815260040160405180910390fd5b6040516396834ad360e01b8152600481018290526000907f00000000000000000000000000000000000000000000000000000000000000006001600160a01b0316906396834ad390602401608060405180830381865afa158015610d48573d6000803e3d6000fd5b505050506040513d601f19601f82011682018060405250810190610d6c91906114d1565b90506000816000015160070b13610d955760405162bfc92160e01b815260040160405180910390fd5b61012c816060015142610da89190611561565b1115610dc757604051632e0942d960e21b815260040160405180910390fd5b80518060006002860154811015600081610de45787600801610de9565b876007015b9050600082610dfb5788600701610e00565b886008015b9050600083610e2e57604051806040016040528060078152602001661059d85a5b9cdd60ca1b815250610e4f565b6040518060400160405280600781526020016624b72330bb37b960c91b8152505b6004548354919250600091610e649190611574565b8b60060154610e7391906112ab565b845490915015801590610e865750600081115b156110ab576000805b8554811015610f045760008d60040154878381548110610eb157610eb16115ad565b906000526020600020906002020160010154610ecd9190611561565b90506000818f60030154610ee19190611561565b9050610eed81856112ab565b935050508080610efc9061148e565b915050610e8f565b5080156110a95760005b85548110156110a75760008d60040154878381548110610f3057610f306115ad565b906000526020600020906002020160010154610f4c9190611561565b90506000818f60030154610f609190611561565b9050600084610f6f8784611574565b610f79919061158b565b90508015611091578060056000828254610f939190611561565b925050819055506000898581548110610fae57610fae6115ad565b600091825260208220600290910201546040516001600160a01b039091169184919081818185875af1925050503d8060008114611007576040519150601f19603f3d011682016040523d82523d6000602084013e61100c565b606091505b505090508061102e576040516312171d8360e31b815260040160405180910390fd5b898581548110611040576110406115ad565b6000918252602091829020600290910201546040518481526001600160a01b03909116917fe34918ff1c7084970068b53fd71ad6d8b04e9f15d3886cbf006443e6cdc52ea6910160405180910390a2505b505050808061109f9061148e565b915050610f0e565b505b505b60058b01805460ff191660011790556040518e907f579e7f72f41084c4072560a3d26ffa8c9361debca741683ee5f7f2cf9a461a53906110ec9085906115c3565b60405180910390a2505050505050505050505050506109a76001600055565b60608180158061111d57506003548110155b1561113b57604051637313c09d60e01b815260040160405180910390fd5b600083815260026020908152604080832060080180548251818502810185019093528083529193909284018215610562576000848152602090819020604080518082019091526002850290910180546001600160a01b0316825260019081015482840152908352909201910161051a565b6111b46111ec565b6001600160a01b0381166111e357604051631e4fbdf760e01b8152600060048201526024015b60405180910390fd5b6109a781611243565b6001546001600160a01b031633146109bc5760405163118cdaa760e01b81523360048201526024016111da565b60026000540361123c57604051633ee5aeb560e01b815260040160405180910390fd5b6002600055565b600180546001600160a01b038381166001600160a01b0319831681179093556040519116919082907f8be0079c531659141344cd1fd0a4f28419497f9722a3daafe3b4186f6b6457e090600090a35050565b634e487b7160e01b600052601160045260246000fd5b808201808211156112be576112be611295565b92915050565b6000602082840312156112d657600080fd5b5035919050565b602080825282518282018190526000919060409081850190868401855b8281101561132857815180516001600160a01b031685528601518685015292840192908501906001016112fa565b5091979650505050505050565b80356001600160a01b038116811461134c57600080fd5b919050565b60006020828403121561136357600080fd5b6106e882611335565b60008060006060848603121561138157600080fd5b505081359360208301359350604090920135919050565b634e487b7160e01b600052602160045260246000fd5b600281106113cc57634e487b7160e01b600052602160045260246000fd5b9052565b6000610100820190508982528860208301528760408301528660608301526113fb60808301876113ae565b8460a08301528360c08301528260e08301529998505050505050505050565b8781526001600160a01b038716602082015260408101869052606081018590526080810184905260e0810161145260a08301856113ae565b8260c083015298975050505050505050565b6000806040838503121561147757600080fd5b61148083611335565b946020939093013593505050565b6000600182016114a0576114a0611295565b5060010190565b805167ffffffffffffffff8116811461134c57600080fd5b8051600381900b811461134c57600080fd5b6000608082840312156114e357600080fd5b6040516080810181811067ffffffffffffffff8211171561151457634e487b7160e01b600052604160045260246000fd5b6040528251600781900b811461152957600080fd5b8152611537602084016114a7565b6020820152611548604084016114bf565b6040820152606083015160608201528091505092915050565b818103818111156112be576112be611295565b80820281158282048414176112be576112be611295565b6000826115a857634e487b7160e01b600052601260045260246000fd5b500490565b634e487b7160e01b600052603260045260246000fd5b600060208083528351808285015260005b818110156115f0578581018301518582016040015282016115d4565b506000604082860101526040601f19601f830116850101925050509291505056fea2646970667358221220db198e87ba06224e37598f83f5175be8e9d2a2ea5b3cbc9e2cd6afe480f66e2b64736f6c63430008140033","opcodes":"PUSH1 0xA0 PUSH1 0x40 MSTORE CALLVALUE DUP1 ISZERO PUSH2 0x10 JUMPI PUSH1 0x0 DUP1 REVERT JUMPDEST POP PUSH1 0x40 MLOAD PUSH2 0x175D CODESIZE SUB DUP1 PUSH2 0x175D DUP4 CODECOPY DUP2 ADD PUSH1 0x40 DUP2 SWAP1 MSTORE PUSH2 0x2F SWAP2 PUSH2 0xDB JUMP JUMPDEST PUSH1 0x1 PUSH1 0x0 SSTORE CALLER DUP1 PUSH2 0x5A JUMPI PUSH1 0x40 MLOAD PUSH4 0x1E4FBDF7 PUSH1 0xE0 SHL DUP2 MSTORE PUSH1 0x0 PUSH1 0x4 DUP3 ADD MSTORE PUSH1 0x24 ADD PUSH1 0x40 MLOAD DUP1 SWAP2 SUB SWAP1 REVERT JUMPDEST PUSH2 0x63 DUP2 PUSH2 0x89 JUMP JUMPDEST POP PUSH1 0x1 PUSH1 0x3 SSTORE PUSH1 0x4 SSTORE PUSH20 0xDD24F84D36BF92C65F92307595C6B99D36B6F8C4 PUSH1 0x80 MSTORE PUSH2 0xF4 JUMP JUMPDEST PUSH1 0x1 DUP1 SLOAD PUSH1 0x1 PUSH1 0x1 PUSH1 0xA0 SHL SUB DUP4 DUP2 AND PUSH1 0x1 PUSH1 0x1 PUSH1 0xA0 SHL SUB NOT DUP4 AND DUP2 OR SWAP1 SWAP4 SSTORE PUSH1 0x40 MLOAD SWAP2 AND SWAP2 SWAP1 DUP3 SWAP1 PUSH32 0x8BE0079C531659141344CD1FD0A4F28419497F9722A3DAAFE3B4186F6B6457E0 SWAP1 PUSH1 0x0 SWAP1 LOG3 POP POP JUMP JUMPDEST PUSH1 0x0 PUSH1 0x20 DUP3 DUP5 SUB SLT ISZERO PUSH2 0xED JUMPI PUSH1 0x0 DUP1 REVERT JUMPDEST POP MLOAD SWAP2 SWAP1 POP JUMP JUMPDEST PUSH1 0x80 MLOAD PUSH2 0x1647 PUSH2 0x116 PUSH1 0x0 CODECOPY PUSH1 0x0 DUP2 DUP2 PUSH2 0x49C ADD MSTORE PUSH2 0xCF9 ADD MSTORE PUSH2 0x1647 PUSH1 0x0 RETURN INVALID PUSH1 0x80 PUSH1 0x40 MSTORE PUSH1 0x4 CALLDATASIZE LT PUSH2 0x139 JUMPI PUSH1 0x0 CALLDATALOAD PUSH1 0xE0 SHR DUP1 PUSH4 0x6F9FB98A GT PUSH2 0xAB JUMPI DUP1 PUSH4 0x8DA5CB5B GT PUSH2 0x6F JUMPI DUP1 PUSH4 0x8DA5CB5B EQ PUSH2 0x3E2 JUMPI DUP1 PUSH4 0xB8141810 EQ PUSH2 0x414 JUMPI DUP1 PUSH4 0xBAC03CD7 EQ PUSH2 0x434 JUMPI DUP1 PUSH4 0xDC6E4495 EQ PUSH2 0x44A JUMPI DUP1 PUSH4 0xF2FDE38B EQ PUSH2 0x46A JUMPI DUP1 PUSH4 0xF98D06F0 EQ PUSH2 0x48A JUMPI PUSH2 0x158 JUMP JUMPDEST DUP1 PUSH4 0x6F9FB98A EQ PUSH2 0x35A JUMPI DUP1 PUSH4 0x715018A6 EQ PUSH2 0x36D JUMPI DUP1 PUSH4 0x7776EAB6 EQ PUSH2 0x382 JUMPI DUP1 PUSH4 0x7CABD293 EQ PUSH2 0x3A2 JUMPI DUP1 PUSH4 0x7FE09C7D EQ PUSH2 0x3C2 JUMPI PUSH2 0x158 JUMP JUMPDEST DUP1 PUSH4 0x3937066C GT PUSH2 0xFD JUMPI DUP1 PUSH4 0x3937066C EQ PUSH2 0x240 JUMPI DUP1 PUSH4 0x5312EA8E EQ PUSH2 0x256 JUMPI DUP1 PUSH4 0x582BD8F1 EQ PUSH2 0x276 JUMPI DUP1 PUSH4 0x5AF01B91 EQ PUSH2 0x2AA JUMPI DUP1 PUSH4 0x6D9AAC62 EQ PUSH2 0x2C0 JUMPI DUP1 PUSH4 0x6EC1B041 EQ PUSH2 0x33A JUMPI PUSH2 0x158 JUMP JUMPDEST DUP1 PUSH4 0x4B8BA5B EQ PUSH2 0x16A JUMPI DUP1 PUSH4 0x9EEA131 EQ PUSH2 0x1A0 JUMPI DUP1 PUSH4 0x13F2721B EQ PUSH2 0x1D0 JUMPI DUP1 PUSH4 0x1547D5C6 EQ PUSH2 0x1F2 JUMPI DUP1 PUSH4 0x312C9E87 EQ PUSH2 0x22D JUMPI PUSH2 0x158 JUMP JUMPDEST CALLDATASIZE PUSH2 0x158 JUMPI CALLVALUE PUSH1 0x5 PUSH1 0x0 DUP3 DUP3 SLOAD PUSH2 0x150 SWAP2 SWAP1 PUSH2 0x12AB JUMP JUMPDEST SWAP3 POP POP DUP2 SWAP1 SSTORE STOP JUMPDEST CALLVALUE PUSH1 0x5 PUSH1 0x0 DUP3 DUP3 SLOAD PUSH2 0x150 SWAP2 SWAP1 PUSH2 0x12AB JUMP JUMPDEST CALLVALUE DUP1 ISZERO PUSH2 0x176 JUMPI PUSH1 0x0 DUP1 REVERT JUMPDEST POP PUSH2 0x18A PUSH2 0x185 CALLDATASIZE PUSH1 0x4 PUSH2 0x12C4 JUMP JUMPDEST PUSH2 0x4BE JUMP JUMPDEST PUSH1 0x40 MLOAD PUSH2 0x197 SWAP2 SWAP1 PUSH2 0x12DD JUMP JUMPDEST PUSH1 0x40 MLOAD DUP1 SWAP2 SUB SWAP1 RETURN JUMPDEST CALLVALUE DUP1 ISZERO PUSH2 0x1AC JUMPI PUSH1 0x0 DUP1 REVERT JUMPDEST POP PUSH2 0x1C0 PUSH2 0x1BB CALLDATASIZE PUSH1 0x4 PUSH2 0x12C4 JUMP JUMPDEST PUSH2 0x56E JUMP JUMPDEST PUSH1 0x40 MLOAD SWAP1 ISZERO ISZERO DUP2 MSTORE PUSH1 0x20 ADD PUSH2 0x197 JUMP JUMPDEST CALLVALUE DUP1 ISZERO PUSH2 0x1DC JUMPI PUSH1 0x0 DUP1 REVERT JUMPDEST POP PUSH2 0x1F0 PUSH2 0x1EB CALLDATASIZE PUSH1 0x4 PUSH2 0x1351 JUMP JUMPDEST PUSH2 0x5EE JUMP JUMPDEST STOP JUMPDEST CALLVALUE DUP1 ISZERO PUSH2 0x1FE JUMPI PUSH1 0x0 DUP1 REVERT JUMPDEST POP PUSH2 0x21F PUSH2 0x20D CALLDATASIZE PUSH1 0x4 PUSH2 0x1351 JUMP JUMPDEST PUSH1 0x6 PUSH1 0x20 MSTORE PUSH1 0x0 SWAP1 DUP2 MSTORE PUSH1 0x40 SWAP1 KECCAK256 SLOAD DUP2 JUMP JUMPDEST PUSH1 0x40 MLOAD SWAP1 DUP2 MSTORE PUSH1 0x20 ADD PUSH2 0x197 JUMP JUMPDEST PUSH2 0x21F PUSH2 0x23B CALLDATASIZE PUSH1 0x4 PUSH2 0x136C JUMP JUMPDEST PUSH2 0x610 JUMP JUMPDEST CALLVALUE DUP1 ISZERO PUSH2 0x24C JUMPI PUSH1 0x0 DUP1 REVERT JUMPDEST POP PUSH2 0x21F PUSH1 0x3 SLOAD DUP2 JUMP JUMPDEST CALLVALUE DUP1 ISZERO PUSH2 0x262 JUMPI PUSH1 0x0 DUP1 REVERT JUMPDEST POP PUSH2 0x1F0 PUSH2 0x271 CALLDATASIZE PUSH1 0x4 PUSH2 0x12C4 JUMP JUMPDEST PUSH2 0x6EF JUMP JUMPDEST CALLVALUE DUP1 ISZERO PUSH2 0x282 JUMPI PUSH1 0x0 DUP1 REVERT JUMPDEST POP PUSH2 0x296 PUSH2 0x291 CALLDATASIZE PUSH1 0x4 PUSH2 0x12C4 JUMP JUMPDEST PUSH2 0x7A1 JUMP JUMPDEST PUSH1 0x40 MLOAD PUSH2 0x197 SWAP9 SWAP8 SWAP7 SWAP6 SWAP5 SWAP4 SWAP3 SWAP2 SWAP1 PUSH2 0x13D0 JUMP JUMPDEST CALLVALUE DUP1 ISZERO PUSH2 0x2B6 JUMPI PUSH1 0x0 DUP1 REVERT JUMPDEST POP PUSH2 0x21F PUSH1 0x4 SLOAD DUP2 JUMP JUMPDEST CALLVALUE DUP1 ISZERO PUSH2 0x2CC JUMPI PUSH1 0x0 DUP1 REVERT JUMPDEST POP PUSH2 0x327 PUSH2 0x2DB CALLDATASIZE PUSH1 0x4 PUSH2 0x12C4 JUMP JUMPDEST PUSH1 0x2 PUSH1 0x20 DUP2 SWAP1 MSTORE PUSH1 0x0 SWAP2 DUP3 MSTORE PUSH1 0x40 SWAP1 SWAP2 KECCAK256 DUP1 SLOAD PUSH1 0x1 DUP3 ADD SLOAD SWAP3 DUP3 ADD SLOAD PUSH1 0x3 DUP4 ADD SLOAD PUSH1 0x4 DUP5 ADD SLOAD PUSH1 0x5 DUP6 ADD SLOAD PUSH1 0x6 SWAP1 SWAP6 ADD SLOAD SWAP4 SWAP6 PUSH1 0x1 PUSH1 0x1 PUSH1 0xA0 SHL SUB AND SWAP5 SWAP3 SWAP4 SWAP2 SWAP3 SWAP1 SWAP2 PUSH1 0xFF SWAP1 SWAP2 AND SWAP1 DUP8 JUMP JUMPDEST PUSH1 0x40 MLOAD PUSH2 0x197 SWAP8 SWAP7 SWAP6 SWAP5 SWAP4 SWAP3 SWAP2 SWAP1 PUSH2 0x141A JUMP JUMPDEST CALLVALUE DUP1 ISZERO PUSH2 0x346 JUMPI PUSH1 0x0 DUP1 REVERT JUMPDEST POP PUSH2 0x1F0 PUSH2 0x355 CALLDATASIZE PUSH1 0x4 PUSH2 0x12C4 JUMP JUMPDEST PUSH2 0x827 JUMP JUMPDEST CALLVALUE DUP1 ISZERO PUSH2 0x366 JUMPI PUSH1 0x0 DUP1 REVERT JUMPDEST POP SELFBALANCE PUSH2 0x21F JUMP JUMPDEST CALLVALUE DUP1 ISZERO PUSH2 0x379 JUMPI PUSH1 0x0 DUP1 REVERT JUMPDEST POP PUSH2 0x1F0 PUSH2 0x9AA JUMP JUMPDEST CALLVALUE DUP1 ISZERO PUSH2 0x38E JUMPI PUSH1 0x0 DUP1 REVERT JUMPDEST POP PUSH2 0x1F0 PUSH2 0x39D CALLDATASIZE PUSH1 0x4 PUSH2 0x12C4 JUMP JUMPDEST PUSH2 0x9BE JUMP JUMPDEST CALLVALUE DUP1 ISZERO PUSH2 0x3AE JUMPI PUSH1 0x0 DUP1 REVERT JUMPDEST POP PUSH2 0x1F0 PUSH2 0x3BD CALLDATASIZE PUSH1 0x4 PUSH2 0x12C4 JUMP JUMPDEST PUSH2 0xB2D JUMP JUMPDEST CALLVALUE DUP1 ISZERO PUSH2 0x3CE JUMPI PUSH1 0x0 DUP1 REVERT JUMPDEST POP PUSH2 0x1F0 PUSH2 0x3DD CALLDATASIZE PUSH1 0x4 PUSH2 0x1464 JUMP JUMPDEST PUSH2 0xB91 JUMP JUMPDEST CALLVALUE DUP1 ISZERO PUSH2 0x3EE JUMPI PUSH1 0x0 DUP1 REVERT JUMPDEST POP PUSH1 0x1 SLOAD PUSH1 0x1 PUSH1 0x1 PUSH1 0xA0 SHL SUB AND JUMPDEST PUSH1 0x40 MLOAD PUSH1 0x1 PUSH1 0x1 PUSH1 0xA0 SHL SUB SWAP1 SWAP2 AND DUP2 MSTORE PUSH1 0x20 ADD PUSH2 0x197 JUMP JUMPDEST CALLVALUE DUP1 ISZERO PUSH2 0x420 JUMPI PUSH1 0x0 DUP1 REVERT JUMPDEST POP PUSH2 0x1F0 PUSH2 0x42F CALLDATASIZE PUSH1 0x4 PUSH2 0x12C4 JUMP JUMPDEST PUSH2 0xBE7 JUMP JUMPDEST CALLVALUE DUP1 ISZERO PUSH2 0x440 JUMPI PUSH1 0x0 DUP1 REVERT JUMPDEST POP PUSH2 0x21F PUSH1 0x5 SLOAD DUP2 JUMP JUMPDEST CALLVALUE DUP1 ISZERO PUSH2 0x456 JUMPI PUSH1 0x0 DUP1 REVERT JUMPDEST POP PUSH2 0x18A PUSH2 0x465 CALLDATASIZE PUSH1 0x4 PUSH2 0x12C4 JUMP JUMPDEST PUSH2 0x110B JUMP JUMPDEST CALLVALUE DUP1 ISZERO PUSH2 0x476 JUMPI PUSH1 0x0 DUP1 REVERT JUMPDEST POP PUSH2 0x1F0 PUSH2 0x485 CALLDATASIZE PUSH1 0x4 PUSH2 0x1351 JUMP JUMPDEST PUSH2 0x11AC JUMP JUMPDEST CALLVALUE DUP1 ISZERO PUSH2 0x496 JUMPI PUSH1 0x0 DUP1 REVERT JUMPDEST POP PUSH2 0x3FC PUSH32 0x0 DUP2 JUMP JUMPDEST PUSH1 0x60 DUP2 DUP1 ISZERO DUP1 PUSH2 0x4D0 JUMPI POP PUSH1 0x3 SLOAD DUP2 LT ISZERO JUMPDEST ISZERO PUSH2 0x4EE JUMPI PUSH1 0x40 MLOAD PUSH4 0x7313C09D PUSH1 0xE0 SHL DUP2 MSTORE PUSH1 0x4 ADD PUSH1 0x40 MLOAD DUP1 SWAP2 SUB SWAP1 REVERT JUMPDEST PUSH1 0x0 DUP4 DUP2 MSTORE PUSH1 0x2 PUSH1 0x20 SWAP1 DUP2 MSTORE PUSH1 0x40 DUP1 DUP4 KECCAK256 PUSH1 0x7 ADD DUP1 SLOAD DUP3 MLOAD DUP2 DUP6 MUL DUP2 ADD DUP6 ADD SWAP1 SWAP4 MSTORE DUP1 DUP4 MSTORE SWAP2 SWAP4 SWAP1 SWAP3 DUP5 ADD JUMPDEST DUP3 DUP3 LT ISZERO PUSH2 0x562 JUMPI PUSH1 0x0 DUP5 DUP2 MSTORE PUSH1 0x20 SWAP1 DUP2 SWAP1 KECCAK256 PUSH1 0x40 DUP1 MLOAD DUP1 DUP3 ADD SWAP1 SWAP2 MSTORE PUSH1 0x2 DUP6 MUL SWAP1 SWAP2 ADD DUP1 SLOAD PUSH1 0x1 PUSH1 0x1 PUSH1 0xA0 SHL SUB AND DUP3 MSTORE PUSH1 0x1 SWAP1 DUP2 ADD SLOAD DUP3 DUP5 ADD MSTORE SWAP1 DUP4 MSTORE SWAP1 SWAP3 ADD SWAP2 ADD PUSH2 0x51A JUMP JUMPDEST POP POP POP POP SWAP2 POP POP SWAP2 SWAP1 POP JUMP JUMPDEST PUSH1 0x0 DUP2 DUP1 ISZERO DUP1 PUSH2 0x580 JUMPI POP PUSH1 0x3 SLOAD DUP2 LT ISZERO JUMPDEST ISZERO PUSH2 0x59E JUMPI PUSH1 0x40 MLOAD PUSH4 0x7313C09D PUSH1 0xE0 SHL DUP2 MSTORE PUSH1 0x4 ADD PUSH1 0x40 MLOAD DUP1 SWAP2 SUB SWAP1 REVERT JUMPDEST PUSH1 0x0 DUP4 DUP2 MSTORE PUSH1 0x2 PUSH1 0x20 MSTORE PUSH1 0x40 SWAP1 KECCAK256 PUSH1 0x3 DUP2 ADD SLOAD PUSH1 0x4 DUP3 ADD SLOAD PUSH2 0x5C0 SWAP2 SWAP1 PUSH2 0x12AB JUMP JUMPDEST TIMESTAMP LT DUP1 ISZERO PUSH2 0x5E6 JUMPI POP PUSH1 0x0 PUSH1 0x5 DUP3 ADD SLOAD PUSH1 0xFF AND PUSH1 0x1 DUP2 GT ISZERO PUSH2 0x5E4 JUMPI PUSH2 0x5E4 PUSH2 0x1398 JUMP JUMPDEST EQ JUMPDEST SWAP5 SWAP4 POP POP POP POP JUMP JUMPDEST PUSH2 0x5F6 PUSH2 0x11EC JUMP JUMPDEST PUSH1 0x1 PUSH1 0x1 PUSH1 0xA0 SHL SUB AND PUSH1 0x0 SWAP1 DUP2 MSTORE PUSH1 0x6 PUSH1 0x20 MSTORE PUSH1 0x40 DUP2 KECCAK256 SSTORE JUMP JUMPDEST PUSH1 0x0 PUSH2 0x61A PUSH2 0x1219 JUMP JUMPDEST PUSH2 0x2710 DUP5 GT DUP1 PUSH2 0x628 JUMPI POP DUP3 ISZERO JUMPDEST ISZERO PUSH2 0x646 JUMPI PUSH1 0x40 MLOAD PUSH4 0xE523909 PUSH1 0xE4 SHL DUP2 MSTORE PUSH1 0x4 ADD PUSH1 0x40 MLOAD DUP1 SWAP2 SUB SWAP1 REVERT JUMPDEST PUSH1 0x3 DUP1 SLOAD PUSH1 0x0 DUP2 DUP2 MSTORE PUSH1 0x2 PUSH1 0x20 DUP2 SWAP1 MSTORE PUSH1 0x40 DUP3 KECCAK256 DUP4 DUP2 SSTORE SWAP1 DUP2 ADD DUP9 SWAP1 SSTORE DUP1 DUP5 ADD DUP8 SWAP1 SSTORE TIMESTAMP PUSH1 0x4 DUP3 ADD SSTORE PUSH1 0x5 DUP2 ADD DUP1 SLOAD PUSH1 0xFF NOT AND SWAP1 SSTORE PUSH1 0x6 DUP2 ADD DUP7 SWAP1 SSTORE DUP4 SLOAD SWAP3 SWAP4 SWAP1 SWAP3 SWAP2 PUSH2 0x692 DUP4 PUSH2 0x148E JUMP JUMPDEST SWAP2 SWAP1 POP SSTORE POP DUP4 PUSH1 0x5 PUSH1 0x0 DUP3 DUP3 SLOAD PUSH2 0x6A9 SWAP2 SWAP1 PUSH2 0x12AB JUMP JUMPDEST SWAP1 SWAP2 SSTORE POP POP PUSH1 0x40 MLOAD CALLER SWAP1 DUP4 SWAP1 PUSH32 0x476F7BDB10D30E2DE6D06E5D144C76D3963482C10F097A5048C401C84D1A1025 SWAP1 PUSH1 0x0 SWAP1 LOG3 POP SWAP1 POP PUSH2 0x6E8 PUSH1 0x1 PUSH1 0x0 SSTORE JUMP JUMPDEST SWAP4 SWAP3 POP POP POP JUMP JUMPDEST PUSH2 0x6F7 PUSH2 0x11EC JUMP JUMPDEST SELFBALANCE DUP2 GT ISZERO PUSH2 0x718 JUMPI PUSH1 0x40 MLOAD PUSH4 0xCD1C8867 PUSH1 0xE0 SHL DUP2 MSTORE PUSH1 0x4 ADD PUSH1 0x40 MLOAD DUP1 SWAP2 SUB SWAP1 REVERT JUMPDEST PUSH1 0x0 PUSH2 0x72C PUSH1 0x1 SLOAD PUSH1 0x1 PUSH1 0x1 PUSH1 0xA0 SHL SUB AND SWAP1 JUMP JUMPDEST PUSH1 0x1 PUSH1 0x1 PUSH1 0xA0 SHL SUB AND DUP3 PUSH1 0x40 MLOAD PUSH1 0x0 PUSH1 0x40 MLOAD DUP1 DUP4 SUB DUP2 DUP6 DUP8 GAS CALL SWAP3 POP POP POP RETURNDATASIZE DUP1 PUSH1 0x0 DUP2 EQ PUSH2 0x776 JUMPI PUSH1 0x40 MLOAD SWAP2 POP PUSH1 0x1F NOT PUSH1 0x3F RETURNDATASIZE ADD AND DUP3 ADD PUSH1 0x40 MSTORE RETURNDATASIZE DUP3 MSTORE RETURNDATASIZE PUSH1 0x0 PUSH1 0x20 DUP5 ADD RETURNDATACOPY PUSH2 0x77B JUMP JUMPDEST PUSH1 0x60 SWAP2 POP JUMPDEST POP POP SWAP1 POP DUP1 PUSH2 0x79D JUMPI PUSH1 0x40 MLOAD PUSH4 0x12171D83 PUSH1 0xE3 SHL DUP2 MSTORE PUSH1 0x4 ADD PUSH1 0x40 MLOAD DUP1 SWAP2 SUB SWAP1 REVERT JUMPDEST POP POP JUMP JUMPDEST PUSH1 0x0 DUP1 DUP1 DUP1 DUP1 DUP1 DUP1 DUP1 DUP9 DUP1 ISZERO DUP1 PUSH2 0x7BA JUMPI POP PUSH1 0x3 SLOAD DUP2 LT ISZERO JUMPDEST ISZERO PUSH2 0x7D8 JUMPI PUSH1 0x40 MLOAD PUSH4 0x7313C09D PUSH1 0xE0 SHL DUP2 MSTORE PUSH1 0x4 ADD PUSH1 0x40 MLOAD DUP1 SWAP2 SUB SWAP1 REVERT JUMPDEST POP POP POP PUSH1 0x0 SWAP7 DUP8 MSTORE POP POP PUSH1 0x2 PUSH1 0x20 DUP2 SWAP1 MSTORE PUSH1 0x40 SWAP1 SWAP6 KECCAK256 DUP1 SLOAD SWAP6 DUP2 ADD SLOAD PUSH1 0x3 DUP3 ADD SLOAD PUSH1 0x4 DUP4 ADD SLOAD PUSH1 0x5 DUP5 ADD SLOAD PUSH1 0x6 DUP6 ADD SLOAD PUSH1 0x7 DUP7 ADD SLOAD PUSH1 0x8 SWAP1 SWAP7 ADD SLOAD SWAP11 SWAP12 SWAP5 SWAP11 SWAP4 SWAP10 POP SWAP2 SWAP8 POP PUSH1 0xFF AND SWAP6 POP SWAP4 POP SWAP1 JUMP JUMPDEST PUSH2 0x82F PUSH2 0x1219 JUMP JUMPDEST DUP1 DUP1 ISZERO DUP1 PUSH2 0x83F JUMPI POP PUSH1 0x3 SLOAD DUP2 LT ISZERO JUMPDEST ISZERO PUSH2 0x85D JUMPI PUSH1 0x40 MLOAD PUSH4 0x7313C09D PUSH1 0xE0 SHL DUP2 MSTORE PUSH1 0x4 ADD PUSH1 0x40 MLOAD DUP1 SWAP2 SUB SWAP1 REVERT JUMPDEST PUSH1 0x0 DUP3 DUP2 MSTORE PUSH1 0x2 PUSH1 0x20 MSTORE PUSH1 0x40 SWAP1 KECCAK256 PUSH1 0x3 DUP2 ADD SLOAD PUSH1 0x4 DUP3 ADD SLOAD DUP5 SWAP3 SWAP2 PUSH2 0x881 SWAP2 PUSH2 0x12AB JUMP JUMPDEST TIMESTAMP LT PUSH2 0x8A0 JUMPI PUSH1 0x40 MLOAD PUSH4 0x76D3A56D PUSH1 0xE0 SHL DUP2 MSTORE PUSH1 0x4 ADD PUSH1 0x40 MLOAD DUP1 SWAP2 SUB SWAP1 REVERT JUMPDEST DUP4 PUSH1 0x0 DUP1 DUP3 DUP2 MSTORE PUSH1 0x2 PUSH1 0x20 MSTORE PUSH1 0x40 SWAP1 KECCAK256 PUSH1 0x5 ADD SLOAD PUSH1 0xFF AND PUSH1 0x1 DUP2 GT ISZERO PUSH2 0x8C8 JUMPI PUSH2 0x8C8 PUSH2 0x1398 JUMP JUMPDEST EQ PUSH2 0x8E6 JUMPI PUSH1 0x40 MLOAD PUSH4 0x2D2D860F PUSH1 0xE1 SHL DUP2 MSTORE PUSH1 0x4 ADD PUSH1 0x40 MLOAD DUP1 SWAP2 SUB SWAP1 REVERT JUMPDEST PUSH1 0x0 DUP6 DUP2 MSTORE PUSH1 0x2 PUSH1 0x20 DUP2 DUP2 MSTORE PUSH1 0x40 DUP1 DUP5 KECCAK256 DUP2 MLOAD DUP1 DUP4 ADD DUP4 MSTORE CALLER DUP1 DUP3 MSTORE TIMESTAMP DUP3 DUP7 ADD SWAP1 DUP2 MSTORE PUSH1 0x7 DUP1 DUP6 ADD DUP1 SLOAD PUSH1 0x1 DUP1 DUP3 ADD DUP4 SSTORE SWAP2 DUP12 MSTORE SWAP10 DUP9 SWAP1 KECCAK256 SWAP5 MLOAD SWAP10 SWAP1 SWAP9 MUL SWAP1 SWAP4 ADD DUP1 SLOAD PUSH1 0x1 PUSH1 0x1 PUSH1 0xA0 SHL SUB NOT AND PUSH1 0x1 PUSH1 0x1 PUSH1 0xA0 SHL SUB SWAP1 SWAP10 AND SWAP9 SWAP1 SWAP9 OR DUP9 SSTORE MLOAD SWAP7 SWAP1 SWAP6 ADD SWAP6 SWAP1 SWAP6 SSTORE DUP2 MLOAD DUP4 DUP2 MSTORE SWAP3 DUP4 ADD SWAP5 SWAP1 SWAP5 MSTORE PUSH7 0x24B72330BB37B9 PUSH1 0xC9 SHL SWAP1 DUP3 ADD MSTORE DUP8 SWAP1 PUSH32 0x245F82ED859B3E07A5D069AB3F24DF4501AEE89BF3FBD10D605980E17C115BEF SWAP1 PUSH1 0x60 ADD JUMPDEST PUSH1 0x40 MLOAD DUP1 SWAP2 SUB SWAP1 LOG3 POP POP POP POP POP PUSH2 0x9A7 PUSH1 0x1 PUSH1 0x0 SSTORE JUMP JUMPDEST POP JUMP JUMPDEST PUSH2 0x9B2 PUSH2 0x11EC JUMP JUMPDEST PUSH2 0x9BC PUSH1 0x0 PUSH2 0x1243 JUMP JUMPDEST JUMP JUMPDEST PUSH2 0x9C6 PUSH2 0x1219 JUMP JUMPDEST DUP1 DUP1 ISZERO DUP1 PUSH2 0x9D6 JUMPI POP PUSH1 0x3 SLOAD DUP2 LT ISZERO JUMPDEST ISZERO PUSH2 0x9F4 JUMPI PUSH1 0x40 MLOAD PUSH4 0x7313C09D PUSH1 0xE0 SHL DUP2 MSTORE PUSH1 0x4 ADD PUSH1 0x40 MLOAD DUP1 SWAP2 SUB SWAP1 REVERT JUMPDEST PUSH1 0x0 DUP3 DUP2 MSTORE PUSH1 0x2 PUSH1 0x20 MSTORE PUSH1 0x40 SWAP1 KECCAK256 PUSH1 0x3 DUP2 ADD SLOAD PUSH1 0x4 DUP3 ADD SLOAD DUP5 SWAP3 SWAP2 PUSH2 0xA18 SWAP2 PUSH2 0x12AB JUMP JUMPDEST TIMESTAMP LT PUSH2 0xA37 JUMPI PUSH1 0x40 MLOAD PUSH4 0x76D3A56D PUSH1 0xE0 SHL DUP2 MSTORE PUSH1 0x4 ADD PUSH1 0x40 MLOAD DUP1 SWAP2 SUB SWAP1 REVERT JUMPDEST DUP4 PUSH1 0x0 DUP1 DUP3 DUP2 MSTORE PUSH1 0x2 PUSH1 0x20 MSTORE PUSH1 0x40 SWAP1 KECCAK256 PUSH1 0x5 ADD SLOAD PUSH1 0xFF AND PUSH1 0x1 DUP2 GT ISZERO PUSH2 0xA5F JUMPI PUSH2 0xA5F PUSH2 0x1398 JUMP JUMPDEST EQ PUSH2 0xA7D JUMPI PUSH1 0x40 MLOAD PUSH4 0x2D2D860F PUSH1 0xE1 SHL DUP2 MSTORE PUSH1 0x4 ADD PUSH1 0x40 MLOAD DUP1 SWAP2 SUB SWAP1 REVERT JUMPDEST PUSH1 0x0 DUP6 DUP2 MSTORE PUSH1 0x2 PUSH1 0x20 DUP2 DUP2 MSTORE PUSH1 0x40 DUP1 DUP5 KECCAK256 DUP2 MLOAD DUP1 DUP4 ADD DUP4 MSTORE CALLER DUP1 DUP3 MSTORE TIMESTAMP DUP3 DUP7 ADD SWAP1 DUP2 MSTORE PUSH1 0x8 DUP5 ADD DUP1 SLOAD PUSH1 0x1 DUP1 DUP3 ADD DUP4 SSTORE SWAP2 DUP11 MSTORE SWAP9 DUP8 SWAP1 KECCAK256 SWAP4 MLOAD SWAP9 SWAP1 SWAP8 MUL SWAP1 SWAP3 ADD DUP1 SLOAD PUSH1 0x1 PUSH1 0x1 PUSH1 0xA0 SHL SUB NOT AND PUSH1 0x1 PUSH1 0x1 PUSH1 0xA0 SHL SUB SWAP1 SWAP9 AND SWAP8 SWAP1 SWAP8 OR DUP8 SSTORE SWAP1 MLOAD SWAP6 SWAP1 SWAP5 ADD SWAP5 SWAP1 SWAP5 SSTORE DUP1 MLOAD DUP3 DUP2 MSTORE PUSH1 0x7 SWAP3 DUP2 ADD SWAP3 SWAP1 SWAP3 MSTORE PUSH7 0x1059D85A5B9CDD PUSH1 0xCA SHL SWAP1 DUP3 ADD MSTORE DUP8 SWAP1 PUSH32 0x245F82ED859B3E07A5D069AB3F24DF4501AEE89BF3FBD10D605980E17C115BEF SWAP1 PUSH1 0x60 ADD PUSH2 0x990 JUMP JUMPDEST PUSH2 0xB35 PUSH2 0x11EC JUMP JUMPDEST DUP1 PUSH1 0x0 SUB PUSH2 0xB56 JUMPI PUSH1 0x40 MLOAD PUSH4 0xE523909 PUSH1 0xE4 SHL DUP2 MSTORE PUSH1 0x4 ADD PUSH1 0x40 MLOAD DUP1 SWAP2 SUB SWAP1 REVERT JUMPDEST PUSH1 0x4 DUP2 SWAP1 SSTORE PUSH1 0x40 MLOAD DUP2 DUP2 MSTORE PUSH32 0xC3869FC4914CAA4E69064C93DC69CE5B5B73DA5A26717B551E7B6B23F2DB9B1B SWAP1 PUSH1 0x20 ADD PUSH1 0x40 MLOAD DUP1 SWAP2 SUB SWAP1 LOG1 POP JUMP JUMPDEST PUSH2 0xB99 PUSH2 0x11EC JUMP JUMPDEST PUSH1 0x1 PUSH1 0x1 PUSH1 0xA0 SHL SUB DUP3 AND ISZERO DUP1 PUSH2 0xBAD JUMPI POP DUP1 ISZERO JUMPDEST ISZERO PUSH2 0xBCB JUMPI PUSH1 0x40 MLOAD PUSH4 0xE523909 PUSH1 0xE4 SHL DUP2 MSTORE PUSH1 0x4 ADD PUSH1 0x40 MLOAD DUP1 SWAP2 SUB SWAP1 REVERT JUMPDEST PUSH1 0x1 PUSH1 0x1 PUSH1 0xA0 SHL SUB SWAP1 SWAP2 AND PUSH1 0x0 SWAP1 DUP2 MSTORE PUSH1 0x6 PUSH1 0x20 MSTORE PUSH1 0x40 SWAP1 KECCAK256 SSTORE JUMP JUMPDEST PUSH2 0xBEF PUSH2 0x1219 JUMP JUMPDEST DUP1 DUP1 ISZERO DUP1 PUSH2 0xBFF JUMPI POP PUSH1 0x3 SLOAD DUP2 LT ISZERO JUMPDEST ISZERO PUSH2 0xC1D JUMPI PUSH1 0x40 MLOAD PUSH4 0x7313C09D PUSH1 0xE0 SHL DUP2 MSTORE PUSH1 0x4 ADD PUSH1 0x40 MLOAD DUP1 SWAP2 SUB SWAP1 REVERT JUMPDEST DUP2 PUSH1 0x0 DUP1 DUP3 DUP2 MSTORE PUSH1 0x2 PUSH1 0x20 MSTORE PUSH1 0x40 SWAP1 KECCAK256 PUSH1 0x5 ADD SLOAD PUSH1 0xFF AND PUSH1 0x1 DUP2 GT ISZERO PUSH2 0xC45 JUMPI PUSH2 0xC45 PUSH2 0x1398 JUMP JUMPDEST EQ PUSH2 0xC63 JUMPI PUSH1 0x40 MLOAD PUSH4 0x2D2D860F PUSH1 0xE1 SHL DUP2 MSTORE PUSH1 0x4 ADD PUSH1 0x40 MLOAD DUP1 SWAP2 SUB SWAP1 REVERT JUMPDEST PUSH1 0x0 DUP4 DUP2 MSTORE PUSH1 0x2 PUSH1 0x20 MSTORE PUSH1 0x40 SWAP1 KECCAK256 PUSH1 0x3 DUP2 ADD SLOAD PUSH1 0x4 DUP3 ADD SLOAD PUSH2 0xC85 SWAP2 SWAP1 PUSH2 0x12AB JUMP JUMPDEST TIMESTAMP LT ISZERO PUSH2 0xCA5 JUMPI PUSH1 0x40 MLOAD PUSH4 0x76D3A56D PUSH1 0xE0 SHL DUP2 MSTORE PUSH1 0x4 ADD PUSH1 0x40 MLOAD DUP1 SWAP2 SUB SWAP1 REVERT JUMPDEST PUSH1 0x1 DUP2 ADD SLOAD PUSH1 0x1 PUSH1 0x1 PUSH1 0xA0 SHL SUB AND PUSH1 0x0 SWAP1 DUP2 MSTORE PUSH1 0x6 PUSH1 0x20 MSTORE PUSH1 0x40 SWAP1 KECCAK256 SLOAD DUP1 PUSH2 0xCE0 JUMPI PUSH1 0x40 MLOAD PUSH4 0x33121279 PUSH1 0xE0 SHL DUP2 MSTORE PUSH1 0x4 ADD PUSH1 0x40 MLOAD DUP1 SWAP2 SUB SWAP1 REVERT JUMPDEST PUSH1 0x40 MLOAD PUSH4 0x96834AD3 PUSH1 0xE0 SHL DUP2 MSTORE PUSH1 0x4 DUP2 ADD DUP3 SWAP1 MSTORE PUSH1 0x0 SWAP1 PUSH32 0x0 PUSH1 0x1 PUSH1 0x1 PUSH1 0xA0 SHL SUB AND SWAP1 PUSH4 0x96834AD3 SWAP1 PUSH1 0x24 ADD PUSH1 0x80 PUSH1 0x40 MLOAD DUP1 DUP4 SUB DUP2 DUP7 GAS STATICCALL ISZERO DUP1 ISZERO PUSH2 0xD48 JUMPI RETURNDATASIZE PUSH1 0x0 DUP1 RETURNDATACOPY RETURNDATASIZE PUSH1 0x0 REVERT JUMPDEST POP POP POP POP PUSH1 0x40 MLOAD RETURNDATASIZE PUSH1 0x1F NOT PUSH1 0x1F DUP3 ADD AND DUP3 ADD DUP1 PUSH1 0x40 MSTORE POP DUP2 ADD SWAP1 PUSH2 0xD6C SWAP2 SWAP1 PUSH2 0x14D1 JUMP JUMPDEST SWAP1 POP PUSH1 0x0 DUP2 PUSH1 0x0 ADD MLOAD PUSH1 0x7 SIGNEXTEND SGT PUSH2 0xD95 JUMPI PUSH1 0x40 MLOAD PUSH3 0xBFC921 PUSH1 0xE0 SHL DUP2 MSTORE PUSH1 0x4 ADD PUSH1 0x40 MLOAD DUP1 SWAP2 SUB SWAP1 REVERT JUMPDEST PUSH2 0x12C DUP2 PUSH1 0x60 ADD MLOAD TIMESTAMP PUSH2 0xDA8 SWAP2 SWAP1 PUSH2 0x1561 JUMP JUMPDEST GT ISZERO PUSH2 0xDC7 JUMPI PUSH1 0x40 MLOAD PUSH4 0x2E0942D9 PUSH1 0xE2 SHL DUP2 MSTORE PUSH1 0x4 ADD PUSH1 0x40 MLOAD DUP1 SWAP2 SUB SWAP1 REVERT JUMPDEST DUP1 MLOAD DUP1 PUSH1 0x0 PUSH1 0x2 DUP7 ADD SLOAD DUP2 LT ISZERO PUSH1 0x0 DUP2 PUSH2 0xDE4 JUMPI DUP8 PUSH1 0x8 ADD PUSH2 0xDE9 JUMP JUMPDEST DUP8 PUSH1 0x7 ADD JUMPDEST SWAP1 POP PUSH1 0x0 DUP3 PUSH2 0xDFB JUMPI DUP9 PUSH1 0x7 ADD PUSH2 0xE00 JUMP JUMPDEST DUP9 PUSH1 0x8 ADD JUMPDEST SWAP1 POP PUSH1 0x0 DUP4 PUSH2 0xE2E JUMPI PUSH1 0x40 MLOAD DUP1 PUSH1 0x40 ADD PUSH1 0x40 MSTORE DUP1 PUSH1 0x7 DUP2 MSTORE PUSH1 0x20 ADD PUSH7 0x1059D85A5B9CDD PUSH1 0xCA SHL DUP2 MSTORE POP PUSH2 0xE4F JUMP JUMPDEST PUSH1 0x40 MLOAD DUP1 PUSH1 0x40 ADD PUSH1 0x40 MSTORE DUP1 PUSH1 0x7 DUP2 MSTORE PUSH1 0x20 ADD PUSH7 0x24B72330BB37B9 PUSH1 0xC9 SHL DUP2 MSTORE POP JUMPDEST PUSH1 0x4 SLOAD DUP4 SLOAD SWAP2 SWAP3 POP PUSH1 0x0 SWAP2 PUSH2 0xE64 SWAP2 SWAP1 PUSH2 0x1574 JUMP JUMPDEST DUP12 PUSH1 0x6 ADD SLOAD PUSH2 0xE73 SWAP2 SWAP1 PUSH2 0x12AB JUMP JUMPDEST DUP5 SLOAD SWAP1 SWAP2 POP ISZERO DUP1 ISZERO SWAP1 PUSH2 0xE86 JUMPI POP PUSH1 0x0 DUP2 GT JUMPDEST ISZERO PUSH2 0x10AB JUMPI PUSH1 0x0 DUP1 JUMPDEST DUP6 SLOAD DUP2 LT ISZERO PUSH2 0xF04 JUMPI PUSH1 0x0 DUP14 PUSH1 0x4 ADD SLOAD DUP8 DUP4 DUP2 SLOAD DUP2 LT PUSH2 0xEB1 JUMPI PUSH2 0xEB1 PUSH2 0x15AD JUMP JUMPDEST SWAP1 PUSH1 0x0 MSTORE PUSH1 0x20 PUSH1 0x0 KECCAK256 SWAP1 PUSH1 0x2 MUL ADD PUSH1 0x1 ADD SLOAD PUSH2 0xECD SWAP2 SWAP1 PUSH2 0x1561 JUMP JUMPDEST SWAP1 POP PUSH1 0x0 DUP2 DUP16 PUSH1 0x3 ADD SLOAD PUSH2 0xEE1 SWAP2 SWAP1 PUSH2 0x1561 JUMP JUMPDEST SWAP1 POP PUSH2 0xEED DUP2 DUP6 PUSH2 0x12AB JUMP JUMPDEST SWAP4 POP POP POP DUP1 DUP1 PUSH2 0xEFC SWAP1 PUSH2 0x148E JUMP JUMPDEST SWAP2 POP POP PUSH2 0xE8F JUMP JUMPDEST POP DUP1 ISZERO PUSH2 0x10A9 JUMPI PUSH1 0x0 JUMPDEST DUP6 SLOAD DUP2 LT ISZERO PUSH2 0x10A7 JUMPI PUSH1 0x0 DUP14 PUSH1 0x4 ADD SLOAD DUP8 DUP4 DUP2 SLOAD DUP2 LT PUSH2 0xF30 JUMPI PUSH2 0xF30 PUSH2 0x15AD JUMP JUMPDEST SWAP1 PUSH1 0x0 MSTORE PUSH1 0x20 PUSH1 0x0 KECCAK256 SWAP1 PUSH1 0x2 MUL ADD PUSH1 0x1 ADD SLOAD PUSH2 0xF4C SWAP2 SWAP1 PUSH2 0x1561 JUMP JUMPDEST SWAP1 POP PUSH1 0x0 DUP2 DUP16 PUSH1 0x3 ADD SLOAD PUSH2 0xF60 SWAP2 SWAP1 PUSH2 0x1561 JUMP JUMPDEST SWAP1 POP PUSH1 0x0 DUP5 PUSH2 0xF6F DUP8 DUP5 PUSH2 0x1574 JUMP JUMPDEST PUSH2 0xF79 SWAP2 SWAP1 PUSH2 0x158B JUMP JUMPDEST SWAP1 POP DUP1 ISZERO PUSH2 0x1091 JUMPI DUP1 PUSH1 0x5 PUSH1 0x0 DUP3 DUP3 SLOAD PUSH2 0xF93 SWAP2 SWAP1 PUSH2 0x1561 JUMP JUMPDEST SWAP3 POP POP DUP2 SWAP1 SSTORE POP PUSH1 0x0 DUP10 DUP6 DUP2 SLOAD DUP2 LT PUSH2 0xFAE JUMPI PUSH2 0xFAE PUSH2 0x15AD JUMP JUMPDEST PUSH1 0x0 SWAP2 DUP3 MSTORE PUSH1 0x20 DUP3 KECCAK256 PUSH1 0x2 SWAP1 SWAP2 MUL ADD SLOAD PUSH1 0x40 MLOAD PUSH1 0x1 PUSH1 0x1 PUSH1 0xA0 SHL SUB SWAP1 SWAP2 AND SWAP2 DUP5 SWAP2 SWAP1 DUP2 DUP2 DUP2 DUP6 DUP8 GAS CALL SWAP3 POP POP POP RETURNDATASIZE DUP1 PUSH1 0x0 DUP2 EQ PUSH2 0x1007 JUMPI PUSH1 0x40 MLOAD SWAP2 POP PUSH1 0x1F NOT PUSH1 0x3F RETURNDATASIZE ADD AND DUP3 ADD PUSH1 0x40 MSTORE RETURNDATASIZE DUP3 MSTORE RETURNDATASIZE PUSH1 0x0 PUSH1 0x20 DUP5 ADD RETURNDATACOPY PUSH2 0x100C JUMP JUMPDEST PUSH1 0x60 SWAP2 POP JUMPDEST POP POP SWAP1 POP DUP1 PUSH2 0x102E JUMPI PUSH1 0x40 MLOAD PUSH4 0x12171D83 PUSH1 0xE3 SHL DUP2 MSTORE PUSH1 0x4 ADD PUSH1 0x40 MLOAD DUP1 SWAP2 SUB SWAP1 REVERT JUMPDEST DUP10 DUP6 DUP2 SLOAD DUP2 LT PUSH2 0x1040 JUMPI PUSH2 0x1040 PUSH2 0x15AD JUMP JUMPDEST PUSH1 0x0 SWAP2 DUP3 MSTORE PUSH1 0x20 SWAP2 DUP3 SWAP1 KECCAK256 PUSH1 0x2 SWAP1 SWAP2 MUL ADD SLOAD PUSH1 0x40 MLOAD DUP5 DUP2 MSTORE PUSH1 0x1 PUSH1 0x1 PUSH1 0xA0 SHL SUB SWAP1 SWAP2 AND SWAP2 PUSH32 0xE34918FF1C7084970068B53FD71AD6D8B04E9F15D3886CBF006443E6CDC52EA6 SWAP2 ADD PUSH1 0x40 MLOAD DUP1 SWAP2 SUB SWAP1 LOG2 POP JUMPDEST POP POP POP DUP1 DUP1 PUSH2 0x109F SWAP1 PUSH2 0x148E JUMP JUMPDEST SWAP2 POP POP PUSH2 0xF0E JUMP JUMPDEST POP JUMPDEST POP JUMPDEST PUSH1 0x5 DUP12 ADD DUP1 SLOAD PUSH1 0xFF NOT AND PUSH1 0x1 OR SWAP1 SSTORE PUSH1 0x40 MLOAD DUP15 SWAP1 PUSH32 0x579E7F72F41084C4072560A3D26FFA8C9361DEBCA741683EE5F7F2CF9A461A53 SWAP1 PUSH2 0x10EC SWAP1 DUP6 SWAP1 PUSH2 0x15C3 JUMP JUMPDEST PUSH1 0x40 MLOAD DUP1 SWAP2 SUB SWAP1 LOG2 POP POP POP POP POP POP POP POP POP POP POP POP POP PUSH2 0x9A7 PUSH1 0x1 PUSH1 0x0 SSTORE JUMP JUMPDEST PUSH1 0x60 DUP2 DUP1 ISZERO DUP1 PUSH2 0x111D JUMPI POP PUSH1 0x3 SLOAD DUP2 LT ISZERO JUMPDEST ISZERO PUSH2 0x113B JUMPI PUSH1 0x40 MLOAD PUSH4 0x7313C09D PUSH1 0xE0 SHL DUP2 MSTORE PUSH1 0x4 ADD PUSH1 0x40 MLOAD DUP1 SWAP2 SUB SWAP1 REVERT JUMPDEST PUSH1 0x0 DUP4 DUP2 MSTORE PUSH1 0x2 PUSH1 0x20 SWAP1 DUP2 MSTORE PUSH1 0x40 DUP1 DUP4 KECCAK256 PUSH1 0x8 ADD DUP1 SLOAD DUP3 MLOAD DUP2 DUP6 MUL DUP2 ADD DUP6 ADD SWAP1 SWAP4 MSTORE DUP1 DUP4 MSTORE SWAP2 SWAP4 SWAP1 SWAP3 DUP5 ADD DUP3 ISZERO PUSH2 0x562 JUMPI PUSH1 0x0 DUP5 DUP2 MSTORE PUSH1 0x20 SWAP1 DUP2 SWAP1 KECCAK256 PUSH1 0x40 DUP1 MLOAD DUP1 DUP3 ADD SWAP1 SWAP2 MSTORE PUSH1 0x2 DUP6 MUL SWAP1 SWAP2 ADD DUP1 SLOAD PUSH1 0x1 PUSH1 0x1 PUSH1 0xA0 SHL SUB AND DUP3 MSTORE PUSH1 0x1 SWAP1 DUP2 ADD SLOAD DUP3 DUP5 ADD MSTORE SWAP1 DUP4 MSTORE SWAP1 SWAP3 ADD SWAP2 ADD PUSH2 0x51A JUMP JUMPDEST PUSH2 0x11B4 PUSH2 0x11EC JUMP JUMPDEST PUSH1 0x1 PUSH1 0x1 PUSH1 0xA0 SHL SUB DUP2 AND PUSH2 0x11E3 JUMPI PUSH1 0x40 MLOAD PUSH4 0x1E4FBDF7 PUSH1 0xE0 SHL DUP2 MSTORE PUSH1 0x0 PUSH1 0x4 DUP3 ADD MSTORE PUSH1 0x24 ADD JUMPDEST PUSH1 0x40 MLOAD DUP1 SWAP2 SUB SWAP1 REVERT JUMPDEST PUSH2 0x9A7 DUP2 PUSH2 0x1243 JUMP JUMPDEST PUSH1 0x1 SLOAD PUSH1 0x1 PUSH1 0x1 PUSH1 0xA0 SHL SUB AND CALLER EQ PUSH2 0x9BC JUMPI PUSH1 0x40 MLOAD PUSH4 0x118CDAA7 PUSH1 0xE0 SHL DUP2 MSTORE CALLER PUSH1 0x4 DUP3 ADD MSTORE PUSH1 0x24 ADD PUSH2 0x11DA JUMP JUMPDEST PUSH1 0x2 PUSH1 0x0 SLOAD SUB PUSH2 0x123C JUMPI PUSH1 0x40 MLOAD PUSH4 0x3EE5AEB5 PUSH1 0xE0 SHL DUP2 MSTORE PUSH1 0x4 ADD PUSH1 0x40 MLOAD DUP1 SWAP2 SUB SWAP1 REVERT JUMPDEST PUSH1 0x2 PUSH1 0x0 SSTORE JUMP JUMPDEST PUSH1 0x1 DUP1 SLOAD PUSH1 0x1 PUSH1 0x1 PUSH1 0xA0 SHL SUB DUP4 DUP2 AND PUSH1 0x1 PUSH1 0x1 PUSH1 0xA0 SHL SUB NOT DUP4 AND DUP2 OR SWAP1 SWAP4 SSTORE PUSH1 0x40 MLOAD SWAP2 AND SWAP2 SWAP1 DUP3 SWAP1 PUSH32 0x8BE0079C531659141344CD1FD0A4F28419497F9722A3DAAFE3B4186F6B6457E0 SWAP1 PUSH1 0x0 SWAP1 LOG3 POP POP JUMP JUMPDEST PUSH4 0x4E487B71 PUSH1 0xE0 SHL PUSH1 0x0 MSTORE PUSH1 0x11 PUSH1 0x4 MSTORE PUSH1 0x24 PUSH1 0x0 REVERT JUMPDEST DUP1 DUP3 ADD DUP1 DUP3 GT ISZERO PUSH2 0x12BE JUMPI PUSH2 0x12BE PUSH2 0x1295 JUMP JUMPDEST SWAP3 SWAP2 POP POP JUMP JUMPDEST PUSH1 0x0 PUSH1 0x20 DUP3 DUP5 SUB SLT ISZERO PUSH2 0x12D6 JUMPI PUSH1 0x0 DUP1 REVERT JUMPDEST POP CALLDATALOAD SWAP2 SWAP1 POP JUMP JUMPDEST PUSH1 0x20 DUP1 DUP3 MSTORE DUP3 MLOAD DUP3 DUP3 ADD DUP2 SWAP1 MSTORE PUSH1 0x0 SWAP2 SWAP1 PUSH1 0x40 SWAP1 DUP2 DUP6 ADD SWAP1 DUP7 DUP5 ADD DUP6 JUMPDEST DUP3 DUP2 LT ISZERO PUSH2 0x1328 JUMPI DUP2 MLOAD DUP1 MLOAD PUSH1 0x1 PUSH1 0x1 PUSH1 0xA0 SHL SUB AND DUP6 MSTORE DUP7 ADD MLOAD DUP7 DUP6 ADD MSTORE SWAP3 DUP5 ADD SWAP3 SWAP1 DUP6 ADD SWAP1 PUSH1 0x1 ADD PUSH2 0x12FA JUMP JUMPDEST POP SWAP2 SWAP8 SWAP7 POP POP POP POP POP POP POP JUMP JUMPDEST DUP1 CALLDATALOAD PUSH1 0x1 PUSH1 0x1 PUSH1 0xA0 SHL SUB DUP2 AND DUP2 EQ PUSH2 0x134C JUMPI PUSH1 0x0 DUP1 REVERT JUMPDEST SWAP2 SWAP1 POP JUMP JUMPDEST PUSH1 0x0 PUSH1 0x20 DUP3 DUP5 SUB SLT ISZERO PUSH2 0x1363 JUMPI PUSH1 0x0 DUP1 REVERT JUMPDEST PUSH2 0x6E8 DUP3 PUSH2 0x1335 JUMP JUMPDEST PUSH1 0x0 DUP1 PUSH1 0x0 PUSH1 0x60 DUP5 DUP7 SUB SLT ISZERO PUSH2 0x1381 JUMPI PUSH1 0x0 DUP1 REVERT JUMPDEST POP POP DUP2 CALLDATALOAD SWAP4 PUSH1 0x20 DUP4 ADD CALLDATALOAD SWAP4 POP PUSH1 0x40 SWAP1 SWAP3 ADD CALLDATALOAD SWAP2 SWAP1 POP JUMP JUMPDEST PUSH4 0x4E487B71 PUSH1 0xE0 SHL PUSH1 0x0 MSTORE PUSH1 0x21 PUSH1 0x4 MSTORE PUSH1 0x24 PUSH1 0x0 REVERT JUMPDEST PUSH1 0x2 DUP2 LT PUSH2 0x13CC JUMPI PUSH4 0x4E487B71 PUSH1 0xE0 SHL PUSH1 0x0 MSTORE PUSH1 0x21 PUSH1 0x4 MSTORE PUSH1 0x24 PUSH1 0x0 REVERT JUMPDEST SWAP1 MSTORE JUMP JUMPDEST PUSH1 0x0 PUSH2 0x100 DUP3 ADD SWAP1 POP DUP10 DUP3 MSTORE DUP9 PUSH1 0x20 DUP4 ADD MSTORE DUP8 PUSH1 0x40 DUP4 ADD MSTORE DUP7 PUSH1 0x60 DUP4 ADD MSTORE PUSH2 0x13FB PUSH1 0x80 DUP4 ADD DUP8 PUSH2 0x13AE JUMP JUMPDEST DUP5 PUSH1 0xA0 DUP4 ADD MSTORE DUP4 PUSH1 0xC0 DUP4 ADD MSTORE DUP3 PUSH1 0xE0 DUP4 ADD MSTORE SWAP10 SWAP9 POP POP POP POP POP POP POP POP POP JUMP JUMPDEST DUP8 DUP2 MSTORE PUSH1 0x1 PUSH1 0x1 PUSH1 0xA0 SHL SUB DUP8 AND PUSH1 0x20 DUP3 ADD MSTORE PUSH1 0x40 DUP2 ADD DUP7 SWAP1 MSTORE PUSH1 0x60 DUP2 ADD DUP6 SWAP1 MSTORE PUSH1 0x80 DUP2 ADD DUP5 SWAP1 MSTORE PUSH1 0xE0 DUP2 ADD PUSH2 0x1452 PUSH1 0xA0 DUP4 ADD DUP6 PUSH2 0x13AE JUMP JUMPDEST DUP3 PUSH1 0xC0 DUP4 ADD MSTORE SWAP9 SWAP8 POP POP POP POP POP POP POP POP JUMP JUMPDEST PUSH1 0x0 DUP1 PUSH1 0x40 DUP4 DUP6 SUB SLT ISZERO PUSH2 0x1477 JUMPI PUSH1 0x0 DUP1 REVERT JUMPDEST PUSH2 0x1480 DUP4 PUSH2 0x1335 JUMP JUMPDEST SWAP5 PUSH1 0x20 SWAP4 SWAP1 SWAP4 ADD CALLDATALOAD SWAP4 POP POP POP JUMP JUMPDEST PUSH1 0x0 PUSH1 0x1 DUP3 ADD PUSH2 0x14A0 JUMPI PUSH2 0x14A0 PUSH2 0x1295 JUMP JUMPDEST POP PUSH1 0x1 ADD SWAP1 JUMP JUMPDEST DUP1 MLOAD PUSH8 0xFFFFFFFFFFFFFFFF DUP2 AND DUP2 EQ PUSH2 0x134C JUMPI PUSH1 0x0 DUP1 REVERT JUMPDEST DUP1 MLOAD PUSH1 0x3 DUP2 SWAP1 SIGNEXTEND DUP2 EQ PUSH2 0x134C JUMPI PUSH1 0x0 DUP1 REVERT JUMPDEST PUSH1 0x0 PUSH1 0x80 DUP3 DUP5 SUB SLT ISZERO PUSH2 0x14E3 JUMPI PUSH1 0x0 DUP1 REVERT JUMPDEST PUSH1 0x40 MLOAD PUSH1 0x80 DUP2 ADD DUP2 DUP2 LT PUSH8 0xFFFFFFFFFFFFFFFF DUP3 GT OR ISZERO PUSH2 0x1514 JUMPI PUSH4 0x4E487B71 PUSH1 0xE0 SHL PUSH1 0x0 MSTORE PUSH1 0x41 PUSH1 0x4 MSTORE PUSH1 0x24 PUSH1 0x0 REVERT JUMPDEST PUSH1 0x40 MSTORE DUP3 MLOAD PUSH1 0x7 DUP2 SWAP1 SIGNEXTEND DUP2 EQ PUSH2 0x1529 JUMPI PUSH1 0x0 DUP1 REVERT JUMPDEST DUP2 MSTORE PUSH2 0x1537 PUSH1 0x20 DUP5 ADD PUSH2 0x14A7 JUMP JUMPDEST PUSH1 0x20 DUP3 ADD MSTORE PUSH2 0x1548 PUSH1 0x40 DUP5 ADD PUSH2 0x14BF JUMP JUMPDEST PUSH1 0x40 DUP3 ADD MSTORE PUSH1 0x60 DUP4 ADD MLOAD PUSH1 0x60 DUP3 ADD MSTORE DUP1 SWAP2 POP POP SWAP3 SWAP2 POP POP JUMP JUMPDEST DUP2 DUP2 SUB DUP2 DUP2 GT ISZERO PUSH2 0x12BE JUMPI PUSH2 0x12BE PUSH2 0x1295 JUMP JUMPDEST DUP1 DUP3 MUL DUP2 ISZERO DUP3 DUP3 DIV DUP5 EQ OR PUSH2 0x12BE JUMPI PUSH2 0x12BE PUSH2 0x1295 JUMP JUMPDEST PUSH1 0x0 DUP3 PUSH2 0x15A8 JUMPI PUSH4 0x4E487B71 PUSH1 0xE0 SHL PUSH1 0x0 MSTORE PUSH1 0x12 PUSH1 0x4 MSTORE PUSH1 0x24 PUSH1 0x0 REVERT JUMPDEST POP DIV SWAP1 JUMP JUMPDEST PUSH4 0x4E487B71 PUSH1 0xE0 SHL PUSH1 0x0 MSTORE PUSH1 0x32 PUSH1 0x4 MSTORE PUSH1 0x24 PUSH1 0x0 REVERT JUMPDEST PUSH1 0x0 PUSH1 0x20 DUP1 DUP4 MSTORE DUP4 MLOAD DUP1 DUP3 DUP6 ADD MSTORE PUSH1 0x0 JUMPDEST DUP2 DUP2 LT ISZERO PUSH2 0x15F0 JUMPI DUP6 DUP2 ADD DUP4 ADD MLOAD DUP6 DUP3 ADD PUSH1 0x40 ADD MSTORE DUP3 ADD PUSH2 0x15D4 JUMP JUMPDEST POP PUSH1 0x0 PUSH1 0x40 DUP3 DUP7 ADD ADD MSTORE PUSH1 0x40 PUSH1 0x1F NOT PUSH1 0x1F DUP4 ADD AND DUP6 ADD ADD SWAP3 POP POP POP SWAP3 SWAP2 POP POP JUMP INVALID LOG2 PUSH5 0x6970667358 0x22 SLT KECCAK256 0xDB NOT DUP15 DUP8 0xBA MOD 0x22 0x4E CALLDATACOPY MSIZE DUP16 DUP4 CREATE2 OR JUMPDEST 0xE8 0xE9 0xD2 LOG2 0xEA JUMPDEST EXTCODECOPY 0xBC SWAP15 0x2C 0xD6 0xAF 0xE4 DUP1 0xF6 PUSH15 0x2B64736F6C63430008140033000000 "},"methodIdentifiers":{"coinToPriceFeedId(address)":"1547d5c6","emergencyWithdraw(uint256)":"5312ea8e","fixedStakeAmount()":"5af01b91","getContractBalance()":"6f9fb98a","getMetric(uint256)":"582bd8f1","getStakesAgainst(uint256)":"dc6e4495","getStakesInFavor(uint256)":"04b8ba5b","isStakingActive(uint256)":"09eea131","metrics(uint256)":"6d9aac62","nextMetricID()":"3937066c","owner()":"8da5cb5b","pyth()":"f98d06f0","removeSupportedCoin(address)":"13f2721b","renounceOwnership()":"715018a6","resolveMetric(uint256)":"b8141810","setSupportedCoin(address,bytes32)":"7fe09c7d","stakeAgainst(uint256)":"7776eab6","stakeInFavor(uint256)":"6ec1b041","submitMetric(uint256,uint256,uint256)":"312c9e87","totalContractBalance()":"bac03cd7","transferOwnership(address)":"f2fde38b","updateFixedStakeAmount(uint256)":"7cabd293"}}}}}