{"contracts/MetricChallengeDAO.sol":{"MetricChallengeDAO":{"abi":[{"inputs":[{"internalType":"uint256","name":"_fixedStakeAmount","type":"uint256"}],"stateMutability":"nonpayable","type":"constructor"},{"inputs":[],"name":"InsufficientPayment","type":"error"},{"inputs":[],"name":"InvalidParameters","type":"error"},{"inputs":[],"name":"MetricAlreadyResolved","type":"error"},{"inputs":[],"name":"MetricNotFound","type":"error"},{"inputs":[{"internalType":"address","name":"owner","type":"address"}],"name":"OwnableInvalidOwner","type":"error"},{"inputs":[{"internalType":"address","name":"account","type":"address"}],"name":"OwnableUnauthorizedAccount","type":"error"},{"inputs":[],"name":"ReentrancyGuardReentrantCall","type":"error"},{"inputs":[],"name":"StakingPeriodOver","type":"error"},{"inputs":[],"name":"TransferFailed","type":"error"},{"anonymous":false,"inputs":[{"indexed":true,"internalType":"uint256","name":"metricID","type":"uint256"},{"indexed":false,"internalType":"string","name":"winningSide","type":"string"}],"name":"MetricResolved","type":"event"},{"anonymous":false,"inputs":[{"indexed":true,"internalType":"uint256","name":"metricID","type":"uint256"},{"indexed":true,"internalType":"address","name":"submitter","type":"address"}],"name":"MetricSubmitted","type":"event"},{"anonymous":false,"inputs":[{"indexed":true,"internalType":"address","name":"previousOwner","type":"address"},{"indexed":true,"internalType":"address","name":"newOwner","type":"address"}],"name":"OwnershipTransferred","type":"event"},{"anonymous":false,"inputs":[{"indexed":true,"internalType":"address","name":"staker","type":"address"},{"indexed":false,"internalType":"uint256","name":"amount","type":"uint256"}],"name":"RewardDistributed","type":"event"},{"anonymous":false,"inputs":[{"indexed":false,"internalType":"uint256","name":"newAmount","type":"uint256"}],"name":"StakeAmountUpdated","type":"event"},{"anonymous":false,"inputs":[{"indexed":true,"internalType":"uint256","name":"metricID","type":"uint256"},{"indexed":true,"internalType":"address","name":"staker","type":"address"},{"indexed":false,"internalType":"string","name":"side","type":"string"}],"name":"Staked","type":"event"},{"stateMutability":"payable","type":"fallback"},{"inputs":[{"internalType":"uint256","name":"amount","type":"uint256"}],"name":"emergencyWithdraw","outputs":[],"stateMutability":"nonpayable","type":"function"},{"inputs":[],"name":"fixedStakeAmount","outputs":[{"internalType":"uint256","name":"","type":"uint256"}],"stateMutability":"view","type":"function"},{"inputs":[],"name":"getContractBalance","outputs":[{"internalType":"uint256","name":"","type":"uint256"}],"stateMutability":"view","type":"function"},{"inputs":[{"internalType":"uint256","name":"metricID","type":"uint256"}],"name":"getMetric","outputs":[{"internalType":"uint256","name":"id","type":"uint256"},{"internalType":"uint256","name":"expectedLossPercent","type":"uint256"},{"internalType":"uint256","name":"duration","type":"uint256"},{"internalType":"uint256","name":"startTime","type":"uint256"},{"internalType":"enum MetricChallengeDAO.MetricStatus","name":"status","type":"uint8"},{"internalType":"uint256","name":"bountyCollateral","type":"uint256"},{"internalType":"uint256","name":"stakesInFavorCount","type":"uint256"},{"internalType":"uint256","name":"stakesAgainstCount","type":"uint256"}],"stateMutability":"view","type":"function"},{"inputs":[{"internalType":"uint256","name":"metricID","type":"uint256"}],"name":"getStakesAgainst","outputs":[{"components":[{"internalType":"address","name":"staker","type":"address"},{"internalType":"uint256","name":"timestamp","type":"uint256"}],"internalType":"struct MetricChallengeDAO.Stake[]","name":"","type":"tuple[]"}],"stateMutability":"view","type":"function"},{"inputs":[{"internalType":"uint256","name":"metricID","type":"uint256"}],"name":"getStakesInFavor","outputs":[{"components":[{"internalType":"address","name":"staker","type":"address"},{"internalType":"uint256","name":"timestamp","type":"uint256"}],"internalType":"struct MetricChallengeDAO.Stake[]","name":"","type":"tuple[]"}],"stateMutability":"view","type":"function"},{"inputs":[{"internalType":"uint256","name":"metricID","type":"uint256"}],"name":"isStakingActive","outputs":[{"internalType":"bool","name":"","type":"bool"}],"stateMutability":"view","type":"function"},{"inputs":[{"internalType":"uint256","name":"","type":"uint256"}],"name":"metrics","outputs":[{"internalType":"uint256","name":"id","type":"uint256"},{"internalType":"uint256","name":"expectedLossPercent","type":"uint256"},{"internalType":"uint256","name":"duration","type":"uint256"},{"internalType":"uint256","name":"startTime","type":"uint256"},{"internalType":"enum MetricChallengeDAO.MetricStatus","name":"status","type":"uint8"},{"internalType":"uint256","name":"bountyCollateral","type":"uint256"}],"stateMutability":"view","type":"function"},{"inputs":[],"name":"nextMetricID","outputs":[{"internalType":"uint256","name":"","type":"uint256"}],"stateMutability":"view","type":"function"},{"inputs":[],"name":"owner","outputs":[{"internalType":"address","name":"","type":"address"}],"stateMutability":"view","type":"function"},{"inputs":[],"name":"renounceOwnership","outputs":[],"stateMutability":"nonpayable","type":"function"},{"inputs":[{"internalType":"uint256","name":"metricID","type":"uint256"},{"internalType":"uint256","name":"actualLossPercent","type":"uint256"}],"name":"resolveMetric","outputs":[],"stateMutability":"nonpayable","type":"function"},{"inputs":[{"internalType":"uint256","name":"metricID","type":"uint256"}],"name":"stakeAgainst","outputs":[],"stateMutability":"nonpayable","type":"function"},{"inputs":[{"internalType":"uint256","name":"metricID","type":"uint256"}],"name":"stakeInFavor","outputs":[],"stateMutability":"nonpayable","type":"function"},{"inputs":[{"internalType":"uint256","name":"expectedLossPercent","type":"uint256"},{"internalType":"uint256","name":"duration","type":"uint256"},{"internalType":"uint256","name":"bountyCollateral","type":"uint256"}],"name":"submitMetric","outputs":[{"internalType":"uint256","name":"","type":"uint256"}],"stateMutability":"payable","type":"function"},{"inputs":[],"name":"totalContractBalance","outputs":[{"internalType":"uint256","name":"","type":"uint256"}],"stateMutability":"view","type":"function"},{"inputs":[{"internalType":"address","name":"newOwner","type":"address"}],"name":"transferOwnership","outputs":[],"stateMutability":"nonpayable","type":"function"},{"inputs":[{"internalType":"uint256","name":"newAmount","type":"uint256"}],"name":"updateFixedStakeAmount","outputs":[],"stateMutability":"nonpayable","type":"function"},{"stateMutability":"payable","type":"receive"}],"evm":{"bytecode":{"linkReferences":{},"object":"608060405234801561001057600080fd5b506040516113c13803806113c183398101604081905261002f916100c3565b6001600055338061005a57604051631e4fbdf760e01b81526000600482015260240160405180910390fd5b61006381610071565b5060016003556004556100dc565b600180546001600160a01b038381166001600160a01b0319831681179093556040519116919082907f8be0079c531659141344cd1fd0a4f28419497f9722a3daafe3b4186f6b6457e090600090a35050565b6000602082840312156100d557600080fd5b5051919050565b6112d6806100eb6000396000f3fe60806040526004361061010d5760003560e01c80636f9fb98a116100955780638da5cb5b116100645780638da5cb5b1461033657806398dea89c1461035e578063bac03cd71461037e578063dc6e449514610394578063f2fde38b146103b45761012c565b80636f9fb98a146102ce578063715018a6146102e15780637776eab6146102f65780637cabd293146103165761012c565b80635312ea8e116100dc5780635312ea8e146101db578063582bd8f1146101fd5780635af01b91146102315780636d9aac62146102475780636ec1b041146102ae5761012c565b806304b8ba5b1461013e57806309eea13114610174578063312c9e87146101a45780633937066c146101c55761012c565b3661012c5734600560008282546101249190611019565b925050819055005b34600560008282546101249190611019565b34801561014a57600080fd5b5061015e610159366004611032565b6103d4565b60405161016b919061104b565b60405180910390f35b34801561018057600080fd5b5061019461018f366004611032565b610484565b604051901515815260200161016b565b6101b76101b23660046110a3565b610506565b60405190815260200161016b565b3480156101d157600080fd5b506101b760035481565b3480156101e757600080fd5b506101fb6101f6366004611032565b6105e5565b005b34801561020957600080fd5b5061021d610218366004611032565b610697565b60405161016b989796959493929190611107565b34801561023d57600080fd5b506101b760045481565b34801561025357600080fd5b5061029c610262366004611032565b60026020819052600091825260409091208054600182015492820154600383015460048401546005909401549294939192909160ff169086565b60405161016b96959493929190611151565b3480156102ba57600080fd5b506101fb6102c9366004611032565b61071a565b3480156102da57600080fd5b50476101b7565b3480156102ed57600080fd5b506101fb6108a1565b34801561030257600080fd5b506101fb610311366004611032565b6108b5565b34801561032257600080fd5b506101fb610331366004611032565b610a24565b34801561034257600080fd5b506001546040516001600160a01b03909116815260200161016b565b34801561036a57600080fd5b506101fb61037936600461118c565b610a88565b34801561038a57600080fd5b506101b760055481565b3480156103a057600080fd5b5061015e6103af366004611032565b610e79565b3480156103c057600080fd5b506101fb6103cf3660046111ae565b610f1a565b6060818015806103e657506003548110155b1561040457604051637313c09d60e01b815260040160405180910390fd5b600083815260026020908152604080832060060180548251818502810185019093528083529193909284015b82821015610478576000848152602090819020604080518082019091526002850290910180546001600160a01b03168252600190810154828401529083529092019101610430565b50505050915050919050565b60008180158061049657506003548110155b156104b457604051637313c09d60e01b815260040160405180910390fd5b60008381526002602081905260409091209081015460038201546104d89190611019565b421080156104fe57506000600482015460ff1660018111156104fc576104fc6110cf565b145b949350505050565b6000610510610f5a565b61271084118061051e575082155b1561053c57604051630e52390960e41b815260040160405180910390fd5b600380546000818152600260208190526040822083815560018101899055908101879055428185015560048101805460ff191690556005810186905583549293909291610588836111d7565b9190505550836005600082825461059f9190611019565b9091555050604051339083907f476f7bdb10d30e2de6d06e5d144c76d3963482c10f097a5048c401c84d1a102590600090a35090506105de6001600055565b9392505050565b6105ed610f84565b4781111561060e5760405163cd1c886760e01b815260040160405180910390fd5b60006106226001546001600160a01b031690565b6001600160a01b03168260405160006040518083038185875af1925050503d806000811461066c576040519150601f19603f3d011682016040523d82523d6000602084013e610671565b606091505b5050905080610693576040516312171d8360e31b815260040160405180910390fd5b5050565b600080808080808080888015806106b057506003548110155b156106ce57604051637313c09d60e01b815260040160405180910390fd5b5050506000968752505060026020819052604090952080546001820154968201546003830154600484015460058501546006860154600790960154949b93995091975060ff1695509350565b610722610f5a565b8080158061073257506003548110155b1561075057604051637313c09d60e01b815260040160405180910390fd5b600082815260026020819052604090912090810154600382015484929161077691611019565b4210610795576040516376d3a56d60e01b815260040160405180910390fd5b836000808281526002602052604090206004015460ff1660018111156107bd576107bd6110cf565b146107db57604051632d2d860f60e11b815260040160405180910390fd5b600085815260026020818152604080842081518083018352338082524282860190815260068401805460018082018355918a529887902093519890970290920180546001600160a01b0319166001600160a01b039098169790971787559051959094019490945580518281526007928101929092526624b72330bb37b960c91b9082015287907f245f82ed859b3e07a5d069ab3f24df4501aee89bf3fbd10d605980e17c115bef906060015b60405180910390a3505050505061089e6001600055565b50565b6108a9610f84565b6108b36000610fb1565b565b6108bd610f5a565b808015806108cd57506003548110155b156108eb57604051637313c09d60e01b815260040160405180910390fd5b600082815260026020819052604090912090810154600382015484929161091191611019565b4210610930576040516376d3a56d60e01b815260040160405180910390fd5b836000808281526002602052604090206004015460ff166001811115610958576109586110cf565b1461097657604051632d2d860f60e11b815260040160405180910390fd5b60008581526002602081815260408084208151808301835233808252428286019081526007808501805460018082018355918b529988902094519990980290930180546001600160a01b0319166001600160a01b03909916989098178855519690950195909555815183815292830194909452661059d85a5b9cdd60ca1b9082015287907f245f82ed859b3e07a5d069ab3f24df4501aee89bf3fbd10d605980e17c115bef90606001610887565b610a2c610f84565b80600003610a4d57604051630e52390960e41b815260040160405180910390fd5b60048190556040518181527fc3869fc4914caa4e69064c93dc69ce5b5b73da5a26717b551e7b6b23f2db9b1b9060200160405180910390a150565b610a90610f84565b610a98610f5a565b81801580610aa857506003548110155b15610ac657604051637313c09d60e01b815260040160405180910390fd5b826000808281526002602052604090206004015460ff166001811115610aee57610aee6110cf565b14610b0c57604051632d2d860f60e11b815260040160405180910390fd5b612710831115610b2f57604051630e52390960e41b815260040160405180910390fd5b600084815260026020526040812060018101549091908510159081610b575782600701610b5c565b826006015b9050600082610b6e5783600601610b73565b836007015b9050600083610ba157604051806040016040528060078152602001661059d85a5b9cdd60ca1b815250610bc2565b6040518060400160405280600781526020016624b72330bb37b960c91b8152505b6004548354919250600091610bd791906111f0565b8660050154610be69190611019565b845490915015801590610bf95750600081115b15610e1e576000805b8554811015610c775760008860030154878381548110610c2457610c24611207565b906000526020600020906002020160010154610c40919061121d565b90506000818a60020154610c54919061121d565b9050610c608185611019565b935050508080610c6f906111d7565b915050610c02565b508015610e1c5760005b8554811015610e1a5760008860030154878381548110610ca357610ca3611207565b906000526020600020906002020160010154610cbf919061121d565b90506000818a60020154610cd3919061121d565b9050600084610ce287846111f0565b610cec9190611230565b90508015610e04578060056000828254610d06919061121d565b925050819055506000898581548110610d2157610d21611207565b600091825260208220600290910201546040516001600160a01b039091169184919081818185875af1925050503d8060008114610d7a576040519150601f19603f3d011682016040523d82523d6000602084013e610d7f565b606091505b5050905080610da1576040516312171d8360e31b815260040160405180910390fd5b898581548110610db357610db3611207565b6000918252602091829020600290910201546040518481526001600160a01b03909116917fe34918ff1c7084970068b53fd71ad6d8b04e9f15d3886cbf006443e6cdc52ea6910160405180910390a2505b5050508080610e12906111d7565b915050610c81565b505b505b60048601805460ff191660011790556040518a907f579e7f72f41084c4072560a3d26ffa8c9361debca741683ee5f7f2cf9a461a5390610e5f908590611252565b60405180910390a250505050505050506106936001600055565b606081801580610e8b57506003548110155b15610ea957604051637313c09d60e01b815260040160405180910390fd5b600083815260026020908152604080832060070180548251818502810185019093528083529193909284018215610478576000848152602090819020604080518082019091526002850290910180546001600160a01b03168252600190810154828401529083529092019101610430565b610f22610f84565b6001600160a01b038116610f5157604051631e4fbdf760e01b8152600060048201526024015b60405180910390fd5b61089e81610fb1565b600260005403610f7d57604051633ee5aeb560e01b815260040160405180910390fd5b6002600055565b6001546001600160a01b031633146108b35760405163118cdaa760e01b8152336004820152602401610f48565b600180546001600160a01b038381166001600160a01b0319831681179093556040519116919082907f8be0079c531659141344cd1fd0a4f28419497f9722a3daafe3b4186f6b6457e090600090a35050565b634e487b7160e01b600052601160045260246000fd5b8082018082111561102c5761102c611003565b92915050565b60006020828403121561104457600080fd5b5035919050565b602080825282518282018190526000919060409081850190868401855b8281101561109657815180516001600160a01b03168552860151868501529284019290850190600101611068565b5091979650505050505050565b6000806000606084860312156110b857600080fd5b505081359360208301359350604090920135919050565b634e487b7160e01b600052602160045260246000fd5b6002811061110357634e487b7160e01b600052602160045260246000fd5b9052565b60006101008201905089825288602083015287604083015286606083015261113260808301876110e5565b8460a08301528360c08301528260e08301529998505050505050505050565b600060c08201905087825286602083015285604083015284606083015261117b60808301856110e5565b8260a0830152979650505050505050565b6000806040838503121561119f57600080fd5b50508035926020909101359150565b6000602082840312156111c057600080fd5b81356001600160a01b03811681146105de57600080fd5b6000600182016111e9576111e9611003565b5060010190565b808202811582820484141761102c5761102c611003565b634e487b7160e01b600052603260045260246000fd5b8181038181111561102c5761102c611003565b60008261124d57634e487b7160e01b600052601260045260246000fd5b500490565b600060208083528351808285015260005b8181101561127f57858101830151858201604001528201611263565b506000604082860101526040601f19601f830116850101925050509291505056fea2646970667358221220e2ff62ef65b45c52be5c8ae407f6c4c8c7d20c1a8c9826241f76b8450fc4790b64736f6c63430008140033","opcodes":"PUSH1 0x80 PUSH1 0x40 MSTORE CALLVALUE DUP1 ISZERO PUSH2 0x10 JUMPI PUSH1 0x0 DUP1 REVERT JUMPDEST POP PUSH1 0x40 MLOAD PUSH2 0x13C1 CODESIZE SUB DUP1 PUSH2 0x13C1 DUP4 CODECOPY DUP2 ADD PUSH1 0x40 DUP2 SWAP1 MSTORE PUSH2 0x2F SWAP2 PUSH2 0xC3 JUMP JUMPDEST PUSH1 0x1 PUSH1 0x0 SSTORE CALLER DUP1 PUSH2 0x5A JUMPI PUSH1 0x40 MLOAD PUSH4 0x1E4FBDF7 PUSH1 0xE0 SHL DUP2 MSTORE PUSH1 0x0 PUSH1 0x4 DUP3 ADD MSTORE PUSH1 0x24 ADD PUSH1 0x40 MLOAD DUP1 SWAP2 SUB SWAP1 REVERT JUMPDEST PUSH2 0x63 DUP2 PUSH2 0x71 JUMP JUMPDEST POP PUSH1 0x1 PUSH1 0x3 SSTORE PUSH1 0x4 SSTORE PUSH2 0xDC JUMP JUMPDEST PUSH1 0x1 DUP1 SLOAD PUSH1 0x1 PUSH1 0x1 PUSH1 0xA0 SHL SUB DUP4 DUP2 AND PUSH1 0x1 PUSH1 0x1 PUSH1 0xA0 SHL SUB NOT DUP4 AND DUP2 OR SWAP1 SWAP4 SSTORE PUSH1 0x40 MLOAD SWAP2 AND SWAP2 SWAP1 DUP3 SWAP1 PUSH32 0x8BE0079C531659141344CD1FD0A4F28419497F9722A3DAAFE3B4186F6B6457E0 SWAP1 PUSH1 0x0 SWAP1 LOG3 POP POP JUMP JUMPDEST PUSH1 0x0 PUSH1 0x20 DUP3 DUP5 SUB SLT ISZERO PUSH2 0xD5 JUMPI PUSH1 0x0 DUP1 REVERT JUMPDEST POP MLOAD SWAP2 SWAP1 POP JUMP JUMPDEST PUSH2 0x12D6 DUP1 PUSH2 0xEB PUSH1 0x0 CODECOPY PUSH1 0x0 RETURN INVALID PUSH1 0x80 PUSH1 0x40 MSTORE PUSH1 0x4 CALLDATASIZE LT PUSH2 0x10D JUMPI PUSH1 0x0 CALLDATALOAD PUSH1 0xE0 SHR DUP1 PUSH4 0x6F9FB98A GT PUSH2 0x95 JUMPI DUP1 PUSH4 0x8DA5CB5B GT PUSH2 0x64 JUMPI DUP1 PUSH4 0x8DA5CB5B EQ PUSH2 0x336 JUMPI DUP1 PUSH4 0x98DEA89C EQ PUSH2 0x35E JUMPI DUP1 PUSH4 0xBAC03CD7 EQ PUSH2 0x37E JUMPI DUP1 PUSH4 0xDC6E4495 EQ PUSH2 0x394 JUMPI DUP1 PUSH4 0xF2FDE38B EQ PUSH2 0x3B4 JUMPI PUSH2 0x12C JUMP JUMPDEST DUP1 PUSH4 0x6F9FB98A EQ PUSH2 0x2CE JUMPI DUP1 PUSH4 0x715018A6 EQ PUSH2 0x2E1 JUMPI DUP1 PUSH4 0x7776EAB6 EQ PUSH2 0x2F6 JUMPI DUP1 PUSH4 0x7CABD293 EQ PUSH2 0x316 JUMPI PUSH2 0x12C JUMP JUMPDEST DUP1 PUSH4 0x5312EA8E GT PUSH2 0xDC JUMPI DUP1 PUSH4 0x5312EA8E EQ PUSH2 0x1DB JUMPI DUP1 PUSH4 0x582BD8F1 EQ PUSH2 0x1FD JUMPI DUP1 PUSH4 0x5AF01B91 EQ PUSH2 0x231 JUMPI DUP1 PUSH4 0x6D9AAC62 EQ PUSH2 0x247 JUMPI DUP1 PUSH4 0x6EC1B041 EQ PUSH2 0x2AE JUMPI PUSH2 0x12C JUMP JUMPDEST DUP1 PUSH4 0x4B8BA5B EQ PUSH2 0x13E JUMPI DUP1 PUSH4 0x9EEA131 EQ PUSH2 0x174 JUMPI DUP1 PUSH4 0x312C9E87 EQ PUSH2 0x1A4 JUMPI DUP1 PUSH4 0x3937066C EQ PUSH2 0x1C5 JUMPI PUSH2 0x12C JUMP JUMPDEST CALLDATASIZE PUSH2 0x12C JUMPI CALLVALUE PUSH1 0x5 PUSH1 0x0 DUP3 DUP3 SLOAD PUSH2 0x124 SWAP2 SWAP1 PUSH2 0x1019 JUMP JUMPDEST SWAP3 POP POP DUP2 SWAP1 SSTORE STOP JUMPDEST CALLVALUE PUSH1 0x5 PUSH1 0x0 DUP3 DUP3 SLOAD PUSH2 0x124 SWAP2 SWAP1 PUSH2 0x1019 JUMP JUMPDEST CALLVALUE DUP1 ISZERO PUSH2 0x14A JUMPI PUSH1 0x0 DUP1 REVERT JUMPDEST POP PUSH2 0x15E PUSH2 0x159 CALLDATASIZE PUSH1 0x4 PUSH2 0x1032 JUMP JUMPDEST PUSH2 0x3D4 JUMP JUMPDEST PUSH1 0x40 MLOAD PUSH2 0x16B SWAP2 SWAP1 PUSH2 0x104B JUMP JUMPDEST PUSH1 0x40 MLOAD DUP1 SWAP2 SUB SWAP1 RETURN JUMPDEST CALLVALUE DUP1 ISZERO PUSH2 0x180 JUMPI PUSH1 0x0 DUP1 REVERT JUMPDEST POP PUSH2 0x194 PUSH2 0x18F CALLDATASIZE PUSH1 0x4 PUSH2 0x1032 JUMP JUMPDEST PUSH2 0x484 JUMP JUMPDEST PUSH1 0x40 MLOAD SWAP1 ISZERO ISZERO DUP2 MSTORE PUSH1 0x20 ADD PUSH2 0x16B JUMP JUMPDEST PUSH2 0x1B7 PUSH2 0x1B2 CALLDATASIZE PUSH1 0x4 PUSH2 0x10A3 JUMP JUMPDEST PUSH2 0x506 JUMP JUMPDEST PUSH1 0x40 MLOAD SWAP1 DUP2 MSTORE PUSH1 0x20 ADD PUSH2 0x16B JUMP JUMPDEST CALLVALUE DUP1 ISZERO PUSH2 0x1D1 JUMPI PUSH1 0x0 DUP1 REVERT JUMPDEST POP PUSH2 0x1B7 PUSH1 0x3 SLOAD DUP2 JUMP JUMPDEST CALLVALUE DUP1 ISZERO PUSH2 0x1E7 JUMPI PUSH1 0x0 DUP1 REVERT JUMPDEST POP PUSH2 0x1FB PUSH2 0x1F6 CALLDATASIZE PUSH1 0x4 PUSH2 0x1032 JUMP JUMPDEST PUSH2 0x5E5 JUMP JUMPDEST STOP JUMPDEST CALLVALUE DUP1 ISZERO PUSH2 0x209 JUMPI PUSH1 0x0 DUP1 REVERT JUMPDEST POP PUSH2 0x21D PUSH2 0x218 CALLDATASIZE PUSH1 0x4 PUSH2 0x1032 JUMP JUMPDEST PUSH2 0x697 JUMP JUMPDEST PUSH1 0x40 MLOAD PUSH2 0x16B SWAP9 SWAP8 SWAP7 SWAP6 SWAP5 SWAP4 SWAP3 SWAP2 SWAP1 PUSH2 0x1107 JUMP JUMPDEST CALLVALUE DUP1 ISZERO PUSH2 0x23D JUMPI PUSH1 0x0 DUP1 REVERT JUMPDEST POP PUSH2 0x1B7 PUSH1 0x4 SLOAD DUP2 JUMP JUMPDEST CALLVALUE DUP1 ISZERO PUSH2 0x253 JUMPI PUSH1 0x0 DUP1 REVERT JUMPDEST POP PUSH2 0x29C PUSH2 0x262 CALLDATASIZE PUSH1 0x4 PUSH2 0x1032 JUMP JUMPDEST PUSH1 0x2 PUSH1 0x20 DUP2 SWAP1 MSTORE PUSH1 0x0 SWAP2 DUP3 MSTORE PUSH1 0x40 SWAP1 SWAP2 KECCAK256 DUP1 SLOAD PUSH1 0x1 DUP3 ADD SLOAD SWAP3 DUP3 ADD SLOAD PUSH1 0x3 DUP4 ADD SLOAD PUSH1 0x4 DUP5 ADD SLOAD PUSH1 0x5 SWAP1 SWAP5 ADD SLOAD SWAP3 SWAP5 SWAP4 SWAP2 SWAP3 SWAP1 SWAP2 PUSH1 0xFF AND SWAP1 DUP7 JUMP JUMPDEST PUSH1 0x40 MLOAD PUSH2 0x16B SWAP7 SWAP6 SWAP5 SWAP4 SWAP3 SWAP2 SWAP1 PUSH2 0x1151 JUMP JUMPDEST CALLVALUE DUP1 ISZERO PUSH2 0x2BA JUMPI PUSH1 0x0 DUP1 REVERT JUMPDEST POP PUSH2 0x1FB PUSH2 0x2C9 CALLDATASIZE PUSH1 0x4 PUSH2 0x1032 JUMP JUMPDEST PUSH2 0x71A JUMP JUMPDEST CALLVALUE DUP1 ISZERO PUSH2 0x2DA JUMPI PUSH1 0x0 DUP1 REVERT JUMPDEST POP SELFBALANCE PUSH2 0x1B7 JUMP JUMPDEST CALLVALUE DUP1 ISZERO PUSH2 0x2ED JUMPI PUSH1 0x0 DUP1 REVERT JUMPDEST POP PUSH2 0x1FB PUSH2 0x8A1 JUMP JUMPDEST CALLVALUE DUP1 ISZERO PUSH2 0x302 JUMPI PUSH1 0x0 DUP1 REVERT JUMPDEST POP PUSH2 0x1FB PUSH2 0x311 CALLDATASIZE PUSH1 0x4 PUSH2 0x1032 JUMP JUMPDEST PUSH2 0x8B5 JUMP JUMPDEST CALLVALUE DUP1 ISZERO PUSH2 0x322 JUMPI PUSH1 0x0 DUP1 REVERT JUMPDEST POP PUSH2 0x1FB PUSH2 0x331 CALLDATASIZE PUSH1 0x4 PUSH2 0x1032 JUMP JUMPDEST PUSH2 0xA24 JUMP JUMPDEST CALLVALUE DUP1 ISZERO PUSH2 0x342 JUMPI PUSH1 0x0 DUP1 REVERT JUMPDEST POP PUSH1 0x1 SLOAD PUSH1 0x40 MLOAD PUSH1 0x1 PUSH1 0x1 PUSH1 0xA0 SHL SUB SWAP1 SWAP2 AND DUP2 MSTORE PUSH1 0x20 ADD PUSH2 0x16B JUMP JUMPDEST CALLVALUE DUP1 ISZERO PUSH2 0x36A JUMPI PUSH1 0x0 DUP1 REVERT JUMPDEST POP PUSH2 0x1FB PUSH2 0x379 CALLDATASIZE PUSH1 0x4 PUSH2 0x118C JUMP JUMPDEST PUSH2 0xA88 JUMP JUMPDEST CALLVALUE DUP1 ISZERO PUSH2 0x38A JUMPI PUSH1 0x0 DUP1 REVERT JUMPDEST POP PUSH2 0x1B7 PUSH1 0x5 SLOAD DUP2 JUMP JUMPDEST CALLVALUE DUP1 ISZERO PUSH2 0x3A0 JUMPI PUSH1 0x0 DUP1 REVERT JUMPDEST POP PUSH2 0x15E PUSH2 0x3AF CALLDATASIZE PUSH1 0x4 PUSH2 0x1032 JUMP JUMPDEST PUSH2 0xE79 JUMP JUMPDEST CALLVALUE DUP1 ISZERO PUSH2 0x3C0 JUMPI PUSH1 0x0 DUP1 REVERT JUMPDEST POP PUSH2 0x1FB PUSH2 0x3CF CALLDATASIZE PUSH1 0x4 PUSH2 0x11AE JUMP JUMPDEST PUSH2 0xF1A JUMP JUMPDEST PUSH1 0x60 DUP2 DUP1 ISZERO DUP1 PUSH2 0x3E6 JUMPI POP PUSH1 0x3 SLOAD DUP2 LT ISZERO JUMPDEST ISZERO PUSH2 0x404 JUMPI PUSH1 0x40 MLOAD PUSH4 0x7313C09D PUSH1 0xE0 SHL DUP2 MSTORE PUSH1 0x4 ADD PUSH1 0x40 MLOAD DUP1 SWAP2 SUB SWAP1 REVERT JUMPDEST PUSH1 0x0 DUP4 DUP2 MSTORE PUSH1 0x2 PUSH1 0x20 SWAP1 DUP2 MSTORE PUSH1 0x40 DUP1 DUP4 KECCAK256 PUSH1 0x6 ADD DUP1 SLOAD DUP3 MLOAD DUP2 DUP6 MUL DUP2 ADD DUP6 ADD SWAP1 SWAP4 MSTORE DUP1 DUP4 MSTORE SWAP2 SWAP4 SWAP1 SWAP3 DUP5 ADD JUMPDEST DUP3 DUP3 LT ISZERO PUSH2 0x478 JUMPI PUSH1 0x0 DUP5 DUP2 MSTORE PUSH1 0x20 SWAP1 DUP2 SWAP1 KECCAK256 PUSH1 0x40 DUP1 MLOAD DUP1 DUP3 ADD SWAP1 SWAP2 MSTORE PUSH1 0x2 DUP6 MUL SWAP1 SWAP2 ADD DUP1 SLOAD PUSH1 0x1 PUSH1 0x1 PUSH1 0xA0 SHL SUB AND DUP3 MSTORE PUSH1 0x1 SWAP1 DUP2 ADD SLOAD DUP3 DUP5 ADD MSTORE SWAP1 DUP4 MSTORE SWAP1 SWAP3 ADD SWAP2 ADD PUSH2 0x430 JUMP JUMPDEST POP POP POP POP SWAP2 POP POP SWAP2 SWAP1 POP JUMP JUMPDEST PUSH1 0x0 DUP2 DUP1 ISZERO DUP1 PUSH2 0x496 JUMPI POP PUSH1 0x3 SLOAD DUP2 LT ISZERO JUMPDEST ISZERO PUSH2 0x4B4 JUMPI PUSH1 0x40 MLOAD PUSH4 0x7313C09D PUSH1 0xE0 SHL DUP2 MSTORE PUSH1 0x4 ADD PUSH1 0x40 MLOAD DUP1 SWAP2 SUB SWAP1 REVERT JUMPDEST PUSH1 0x0 DUP4 DUP2 MSTORE PUSH1 0x2 PUSH1 0x20 DUP2 SWAP1 MSTORE PUSH1 0x40 SWAP1 SWAP2 KECCAK256 SWAP1 DUP2 ADD SLOAD PUSH1 0x3 DUP3 ADD SLOAD PUSH2 0x4D8 SWAP2 SWAP1 PUSH2 0x1019 JUMP JUMPDEST TIMESTAMP LT DUP1 ISZERO PUSH2 0x4FE JUMPI POP PUSH1 0x0 PUSH1 0x4 DUP3 ADD SLOAD PUSH1 0xFF AND PUSH1 0x1 DUP2 GT ISZERO PUSH2 0x4FC JUMPI PUSH2 0x4FC PUSH2 0x10CF JUMP JUMPDEST EQ JUMPDEST SWAP5 SWAP4 POP POP POP POP JUMP JUMPDEST PUSH1 0x0 PUSH2 0x510 PUSH2 0xF5A JUMP JUMPDEST PUSH2 0x2710 DUP5 GT DUP1 PUSH2 0x51E JUMPI POP DUP3 ISZERO JUMPDEST ISZERO PUSH2 0x53C JUMPI PUSH1 0x40 MLOAD PUSH4 0xE523909 PUSH1 0xE4 SHL DUP2 MSTORE PUSH1 0x4 ADD PUSH1 0x40 MLOAD DUP1 SWAP2 SUB SWAP1 REVERT JUMPDEST PUSH1 0x3 DUP1 SLOAD PUSH1 0x0 DUP2 DUP2 MSTORE PUSH1 0x2 PUSH1 0x20 DUP2 SWAP1 MSTORE PUSH1 0x40 DUP3 KECCAK256 DUP4 DUP2 SSTORE PUSH1 0x1 DUP2 ADD DUP10 SWAP1 SSTORE SWAP1 DUP2 ADD DUP8 SWAP1 SSTORE TIMESTAMP DUP2 DUP6 ADD SSTORE PUSH1 0x4 DUP2 ADD DUP1 SLOAD PUSH1 0xFF NOT AND SWAP1 SSTORE PUSH1 0x5 DUP2 ADD DUP7 SWAP1 SSTORE DUP4 SLOAD SWAP3 SWAP4 SWAP1 SWAP3 SWAP2 PUSH2 0x588 DUP4 PUSH2 0x11D7 JUMP JUMPDEST SWAP2 SWAP1 POP SSTORE POP DUP4 PUSH1 0x5 PUSH1 0x0 DUP3 DUP3 SLOAD PUSH2 0x59F SWAP2 SWAP1 PUSH2 0x1019 JUMP JUMPDEST SWAP1 SWAP2 SSTORE POP POP PUSH1 0x40 MLOAD CALLER SWAP1 DUP4 SWAP1 PUSH32 0x476F7BDB10D30E2DE6D06E5D144C76D3963482C10F097A5048C401C84D1A1025 SWAP1 PUSH1 0x0 SWAP1 LOG3 POP SWAP1 POP PUSH2 0x5DE PUSH1 0x1 PUSH1 0x0 SSTORE JUMP JUMPDEST SWAP4 SWAP3 POP POP POP JUMP JUMPDEST PUSH2 0x5ED PUSH2 0xF84 JUMP JUMPDEST SELFBALANCE DUP2 GT ISZERO PUSH2 0x60E JUMPI PUSH1 0x40 MLOAD PUSH4 0xCD1C8867 PUSH1 0xE0 SHL DUP2 MSTORE PUSH1 0x4 ADD PUSH1 0x40 MLOAD DUP1 SWAP2 SUB SWAP1 REVERT JUMPDEST PUSH1 0x0 PUSH2 0x622 PUSH1 0x1 SLOAD PUSH1 0x1 PUSH1 0x1 PUSH1 0xA0 SHL SUB AND SWAP1 JUMP JUMPDEST PUSH1 0x1 PUSH1 0x1 PUSH1 0xA0 SHL SUB AND DUP3 PUSH1 0x40 MLOAD PUSH1 0x0 PUSH1 0x40 MLOAD DUP1 DUP4 SUB DUP2 DUP6 DUP8 GAS CALL SWAP3 POP POP POP RETURNDATASIZE DUP1 PUSH1 0x0 DUP2 EQ PUSH2 0x66C JUMPI PUSH1 0x40 MLOAD SWAP2 POP PUSH1 0x1F NOT PUSH1 0x3F RETURNDATASIZE ADD AND DUP3 ADD PUSH1 0x40 MSTORE RETURNDATASIZE DUP3 MSTORE RETURNDATASIZE PUSH1 0x0 PUSH1 0x20 DUP5 ADD RETURNDATACOPY PUSH2 0x671 JUMP JUMPDEST PUSH1 0x60 SWAP2 POP JUMPDEST POP POP SWAP1 POP DUP1 PUSH2 0x693 JUMPI PUSH1 0x40 MLOAD PUSH4 0x12171D83 PUSH1 0xE3 SHL DUP2 MSTORE PUSH1 0x4 ADD PUSH1 0x40 MLOAD DUP1 SWAP2 SUB SWAP1 REVERT JUMPDEST POP POP JUMP JUMPDEST PUSH1 0x0 DUP1 DUP1 DUP1 DUP1 DUP1 DUP1 DUP1 DUP9 DUP1 ISZERO DUP1 PUSH2 0x6B0 JUMPI POP PUSH1 0x3 SLOAD DUP2 LT ISZERO JUMPDEST ISZERO PUSH2 0x6CE JUMPI PUSH1 0x40 MLOAD PUSH4 0x7313C09D PUSH1 0xE0 SHL DUP2 MSTORE PUSH1 0x4 ADD PUSH1 0x40 MLOAD DUP1 SWAP2 SUB SWAP1 REVERT JUMPDEST POP POP POP PUSH1 0x0 SWAP7 DUP8 MSTORE POP POP PUSH1 0x2 PUSH1 0x20 DUP2 SWAP1 MSTORE PUSH1 0x40 SWAP1 SWAP6 KECCAK256 DUP1 SLOAD PUSH1 0x1 DUP3 ADD SLOAD SWAP7 DUP3 ADD SLOAD PUSH1 0x3 DUP4 ADD SLOAD PUSH1 0x4 DUP5 ADD SLOAD PUSH1 0x5 DUP6 ADD SLOAD PUSH1 0x6 DUP7 ADD SLOAD PUSH1 0x7 SWAP1 SWAP7 ADD SLOAD SWAP5 SWAP12 SWAP4 SWAP10 POP SWAP2 SWAP8 POP PUSH1 0xFF AND SWAP6 POP SWAP4 POP JUMP JUMPDEST PUSH2 0x722 PUSH2 0xF5A JUMP JUMPDEST DUP1 DUP1 ISZERO DUP1 PUSH2 0x732 JUMPI POP PUSH1 0x3 SLOAD DUP2 LT ISZERO JUMPDEST ISZERO PUSH2 0x750 JUMPI PUSH1 0x40 MLOAD PUSH4 0x7313C09D PUSH1 0xE0 SHL DUP2 MSTORE PUSH1 0x4 ADD PUSH1 0x40 MLOAD DUP1 SWAP2 SUB SWAP1 REVERT JUMPDEST PUSH1 0x0 DUP3 DUP2 MSTORE PUSH1 0x2 PUSH1 0x20 DUP2 SWAP1 MSTORE PUSH1 0x40 SWAP1 SWAP2 KECCAK256 SWAP1 DUP2 ADD SLOAD PUSH1 0x3 DUP3 ADD SLOAD DUP5 SWAP3 SWAP2 PUSH2 0x776 SWAP2 PUSH2 0x1019 JUMP JUMPDEST TIMESTAMP LT PUSH2 0x795 JUMPI PUSH1 0x40 MLOAD PUSH4 0x76D3A56D PUSH1 0xE0 SHL DUP2 MSTORE PUSH1 0x4 ADD PUSH1 0x40 MLOAD DUP1 SWAP2 SUB SWAP1 REVERT JUMPDEST DUP4 PUSH1 0x0 DUP1 DUP3 DUP2 MSTORE PUSH1 0x2 PUSH1 0x20 MSTORE PUSH1 0x40 SWAP1 KECCAK256 PUSH1 0x4 ADD SLOAD PUSH1 0xFF AND PUSH1 0x1 DUP2 GT ISZERO PUSH2 0x7BD JUMPI PUSH2 0x7BD PUSH2 0x10CF JUMP JUMPDEST EQ PUSH2 0x7DB JUMPI PUSH1 0x40 MLOAD PUSH4 0x2D2D860F PUSH1 0xE1 SHL DUP2 MSTORE PUSH1 0x4 ADD PUSH1 0x40 MLOAD DUP1 SWAP2 SUB SWAP1 REVERT JUMPDEST PUSH1 0x0 DUP6 DUP2 MSTORE PUSH1 0x2 PUSH1 0x20 DUP2 DUP2 MSTORE PUSH1 0x40 DUP1 DUP5 KECCAK256 DUP2 MLOAD DUP1 DUP4 ADD DUP4 MSTORE CALLER DUP1 DUP3 MSTORE TIMESTAMP DUP3 DUP7 ADD SWAP1 DUP2 MSTORE PUSH1 0x6 DUP5 ADD DUP1 SLOAD PUSH1 0x1 DUP1 DUP3 ADD DUP4 SSTORE SWAP2 DUP11 MSTORE SWAP9 DUP8 SWAP1 KECCAK256 SWAP4 MLOAD SWAP9 SWAP1 SWAP8 MUL SWAP1 SWAP3 ADD DUP1 SLOAD PUSH1 0x1 PUSH1 0x1 PUSH1 0xA0 SHL SUB NOT AND PUSH1 0x1 PUSH1 0x1 PUSH1 0xA0 SHL SUB SWAP1 SWAP9 AND SWAP8 SWAP1 SWAP8 OR DUP8 SSTORE SWAP1 MLOAD SWAP6 SWAP1 SWAP5 ADD SWAP5 SWAP1 SWAP5 SSTORE DUP1 MLOAD DUP3 DUP2 MSTORE PUSH1 0x7 SWAP3 DUP2 ADD SWAP3 SWAP1 SWAP3 MSTORE PUSH7 0x24B72330BB37B9 PUSH1 0xC9 SHL SWAP1 DUP3 ADD MSTORE DUP8 SWAP1 PUSH32 0x245F82ED859B3E07A5D069AB3F24DF4501AEE89BF3FBD10D605980E17C115BEF SWAP1 PUSH1 0x60 ADD JUMPDEST PUSH1 0x40 MLOAD DUP1 SWAP2 SUB SWAP1 LOG3 POP POP POP POP POP PUSH2 0x89E PUSH1 0x1 PUSH1 0x0 SSTORE JUMP JUMPDEST POP JUMP JUMPDEST PUSH2 0x8A9 PUSH2 0xF84 JUMP JUMPDEST PUSH2 0x8B3 PUSH1 0x0 PUSH2 0xFB1 JUMP JUMPDEST JUMP JUMPDEST PUSH2 0x8BD PUSH2 0xF5A JUMP JUMPDEST DUP1 DUP1 ISZERO DUP1 PUSH2 0x8CD JUMPI POP PUSH1 0x3 SLOAD DUP2 LT ISZERO JUMPDEST ISZERO PUSH2 0x8EB JUMPI PUSH1 0x40 MLOAD PUSH4 0x7313C09D PUSH1 0xE0 SHL DUP2 MSTORE PUSH1 0x4 ADD PUSH1 0x40 MLOAD DUP1 SWAP2 SUB SWAP1 REVERT JUMPDEST PUSH1 0x0 DUP3 DUP2 MSTORE PUSH1 0x2 PUSH1 0x20 DUP2 SWAP1 MSTORE PUSH1 0x40 SWAP1 SWAP2 KECCAK256 SWAP1 DUP2 ADD SLOAD PUSH1 0x3 DUP3 ADD SLOAD DUP5 SWAP3 SWAP2 PUSH2 0x911 SWAP2 PUSH2 0x1019 JUMP JUMPDEST TIMESTAMP LT PUSH2 0x930 JUMPI PUSH1 0x40 MLOAD PUSH4 0x76D3A56D PUSH1 0xE0 SHL DUP2 MSTORE PUSH1 0x4 ADD PUSH1 0x40 MLOAD DUP1 SWAP2 SUB SWAP1 REVERT JUMPDEST DUP4 PUSH1 0x0 DUP1 DUP3 DUP2 MSTORE PUSH1 0x2 PUSH1 0x20 MSTORE PUSH1 0x40 SWAP1 KECCAK256 PUSH1 0x4 ADD SLOAD PUSH1 0xFF AND PUSH1 0x1 DUP2 GT ISZERO PUSH2 0x958 JUMPI PUSH2 0x958 PUSH2 0x10CF JUMP JUMPDEST EQ PUSH2 0x976 JUMPI PUSH1 0x40 MLOAD PUSH4 0x2D2D860F PUSH1 0xE1 SHL DUP2 MSTORE PUSH1 0x4 ADD PUSH1 0x40 MLOAD DUP1 SWAP2 SUB SWAP1 REVERT JUMPDEST PUSH1 0x0 DUP6 DUP2 MSTORE PUSH1 0x2 PUSH1 0x20 DUP2 DUP2 MSTORE PUSH1 0x40 DUP1 DUP5 KECCAK256 DUP2 MLOAD DUP1 DUP4 ADD DUP4 MSTORE CALLER DUP1 DUP3 MSTORE TIMESTAMP DUP3 DUP7 ADD SWAP1 DUP2 MSTORE PUSH1 0x7 DUP1 DUP6 ADD DUP1 SLOAD PUSH1 0x1 DUP1 DUP3 ADD DUP4 SSTORE SWAP2 DUP12 MSTORE SWAP10 DUP9 SWAP1 KECCAK256 SWAP5 MLOAD SWAP10 SWAP1 SWAP9 MUL SWAP1 SWAP4 ADD DUP1 SLOAD PUSH1 0x1 PUSH1 0x1 PUSH1 0xA0 SHL SUB NOT AND PUSH1 0x1 PUSH1 0x1 PUSH1 0xA0 SHL SUB SWAP1 SWAP10 AND SWAP9 SWAP1 SWAP9 OR DUP9 SSTORE MLOAD SWAP7 SWAP1 SWAP6 ADD SWAP6 SWAP1 SWAP6 SSTORE DUP2 MLOAD DUP4 DUP2 MSTORE SWAP3 DUP4 ADD SWAP5 SWAP1 SWAP5 MSTORE PUSH7 0x1059D85A5B9CDD PUSH1 0xCA SHL SWAP1 DUP3 ADD MSTORE DUP8 SWAP1 PUSH32 0x245F82ED859B3E07A5D069AB3F24DF4501AEE89BF3FBD10D605980E17C115BEF SWAP1 PUSH1 0x60 ADD PUSH2 0x887 JUMP JUMPDEST PUSH2 0xA2C PUSH2 0xF84 JUMP JUMPDEST DUP1 PUSH1 0x0 SUB PUSH2 0xA4D JUMPI PUSH1 0x40 MLOAD PUSH4 0xE523909 PUSH1 0xE4 SHL DUP2 MSTORE PUSH1 0x4 ADD PUSH1 0x40 MLOAD DUP1 SWAP2 SUB SWAP1 REVERT JUMPDEST PUSH1 0x4 DUP2 SWAP1 SSTORE PUSH1 0x40 MLOAD DUP2 DUP2 MSTORE PUSH32 0xC3869FC4914CAA4E69064C93DC69CE5B5B73DA5A26717B551E7B6B23F2DB9B1B SWAP1 PUSH1 0x20 ADD PUSH1 0x40 MLOAD DUP1 SWAP2 SUB SWAP1 LOG1 POP JUMP JUMPDEST PUSH2 0xA90 PUSH2 0xF84 JUMP JUMPDEST PUSH2 0xA98 PUSH2 0xF5A JUMP JUMPDEST DUP2 DUP1 ISZERO DUP1 PUSH2 0xAA8 JUMPI POP PUSH1 0x3 SLOAD DUP2 LT ISZERO JUMPDEST ISZERO PUSH2 0xAC6 JUMPI PUSH1 0x40 MLOAD PUSH4 0x7313C09D PUSH1 0xE0 SHL DUP2 MSTORE PUSH1 0x4 ADD PUSH1 0x40 MLOAD DUP1 SWAP2 SUB SWAP1 REVERT JUMPDEST DUP3 PUSH1 0x0 DUP1 DUP3 DUP2 MSTORE PUSH1 0x2 PUSH1 0x20 MSTORE PUSH1 0x40 SWAP1 KECCAK256 PUSH1 0x4 ADD SLOAD PUSH1 0xFF AND PUSH1 0x1 DUP2 GT ISZERO PUSH2 0xAEE JUMPI PUSH2 0xAEE PUSH2 0x10CF JUMP JUMPDEST EQ PUSH2 0xB0C JUMPI PUSH1 0x40 MLOAD PUSH4 0x2D2D860F PUSH1 0xE1 SHL DUP2 MSTORE PUSH1 0x4 ADD PUSH1 0x40 MLOAD DUP1 SWAP2 SUB SWAP1 REVERT JUMPDEST PUSH2 0x2710 DUP4 GT ISZERO PUSH2 0xB2F JUMPI PUSH1 0x40 MLOAD PUSH4 0xE523909 PUSH1 0xE4 SHL DUP2 MSTORE PUSH1 0x4 ADD PUSH1 0x40 MLOAD DUP1 SWAP2 SUB SWAP1 REVERT JUMPDEST PUSH1 0x0 DUP5 DUP2 MSTORE PUSH1 0x2 PUSH1 0x20 MSTORE PUSH1 0x40 DUP2 KECCAK256 PUSH1 0x1 DUP2 ADD SLOAD SWAP1 SWAP2 SWAP1 DUP6 LT ISZERO SWAP1 DUP2 PUSH2 0xB57 JUMPI DUP3 PUSH1 0x7 ADD PUSH2 0xB5C JUMP JUMPDEST DUP3 PUSH1 0x6 ADD JUMPDEST SWAP1 POP PUSH1 0x0 DUP3 PUSH2 0xB6E JUMPI DUP4 PUSH1 0x6 ADD PUSH2 0xB73 JUMP JUMPDEST DUP4 PUSH1 0x7 ADD JUMPDEST SWAP1 POP PUSH1 0x0 DUP4 PUSH2 0xBA1 JUMPI PUSH1 0x40 MLOAD DUP1 PUSH1 0x40 ADD PUSH1 0x40 MSTORE DUP1 PUSH1 0x7 DUP2 MSTORE PUSH1 0x20 ADD PUSH7 0x1059D85A5B9CDD PUSH1 0xCA SHL DUP2 MSTORE POP PUSH2 0xBC2 JUMP JUMPDEST PUSH1 0x40 MLOAD DUP1 PUSH1 0x40 ADD PUSH1 0x40 MSTORE DUP1 PUSH1 0x7 DUP2 MSTORE PUSH1 0x20 ADD PUSH7 0x24B72330BB37B9 PUSH1 0xC9 SHL DUP2 MSTORE POP JUMPDEST PUSH1 0x4 SLOAD DUP4 SLOAD SWAP2 SWAP3 POP PUSH1 0x0 SWAP2 PUSH2 0xBD7 SWAP2 SWAP1 PUSH2 0x11F0 JUMP JUMPDEST DUP7 PUSH1 0x5 ADD SLOAD PUSH2 0xBE6 SWAP2 SWAP1 PUSH2 0x1019 JUMP JUMPDEST DUP5 SLOAD SWAP1 SWAP2 POP ISZERO DUP1 ISZERO SWAP1 PUSH2 0xBF9 JUMPI POP PUSH1 0x0 DUP2 GT JUMPDEST ISZERO PUSH2 0xE1E JUMPI PUSH1 0x0 DUP1 JUMPDEST DUP6 SLOAD DUP2 LT ISZERO PUSH2 0xC77 JUMPI PUSH1 0x0 DUP9 PUSH1 0x3 ADD SLOAD DUP8 DUP4 DUP2 SLOAD DUP2 LT PUSH2 0xC24 JUMPI PUSH2 0xC24 PUSH2 0x1207 JUMP JUMPDEST SWAP1 PUSH1 0x0 MSTORE PUSH1 0x20 PUSH1 0x0 KECCAK256 SWAP1 PUSH1 0x2 MUL ADD PUSH1 0x1 ADD SLOAD PUSH2 0xC40 SWAP2 SWAP1 PUSH2 0x121D JUMP JUMPDEST SWAP1 POP PUSH1 0x0 DUP2 DUP11 PUSH1 0x2 ADD SLOAD PUSH2 0xC54 SWAP2 SWAP1 PUSH2 0x121D JUMP JUMPDEST SWAP1 POP PUSH2 0xC60 DUP2 DUP6 PUSH2 0x1019 JUMP JUMPDEST SWAP4 POP POP POP DUP1 DUP1 PUSH2 0xC6F SWAP1 PUSH2 0x11D7 JUMP JUMPDEST SWAP2 POP POP PUSH2 0xC02 JUMP JUMPDEST POP DUP1 ISZERO PUSH2 0xE1C JUMPI PUSH1 0x0 JUMPDEST DUP6 SLOAD DUP2 LT ISZERO PUSH2 0xE1A JUMPI PUSH1 0x0 DUP9 PUSH1 0x3 ADD SLOAD DUP8 DUP4 DUP2 SLOAD DUP2 LT PUSH2 0xCA3 JUMPI PUSH2 0xCA3 PUSH2 0x1207 JUMP JUMPDEST SWAP1 PUSH1 0x0 MSTORE PUSH1 0x20 PUSH1 0x0 KECCAK256 SWAP1 PUSH1 0x2 MUL ADD PUSH1 0x1 ADD SLOAD PUSH2 0xCBF SWAP2 SWAP1 PUSH2 0x121D JUMP JUMPDEST SWAP1 POP PUSH1 0x0 DUP2 DUP11 PUSH1 0x2 ADD SLOAD PUSH2 0xCD3 SWAP2 SWAP1 PUSH2 0x121D JUMP JUMPDEST SWAP1 POP PUSH1 0x0 DUP5 PUSH2 0xCE2 DUP8 DUP5 PUSH2 0x11F0 JUMP JUMPDEST PUSH2 0xCEC SWAP2 SWAP1 PUSH2 0x1230 JUMP JUMPDEST SWAP1 POP DUP1 ISZERO PUSH2 0xE04 JUMPI DUP1 PUSH1 0x5 PUSH1 0x0 DUP3 DUP3 SLOAD PUSH2 0xD06 SWAP2 SWAP1 PUSH2 0x121D JUMP JUMPDEST SWAP3 POP POP DUP2 SWAP1 SSTORE POP PUSH1 0x0 DUP10 DUP6 DUP2 SLOAD DUP2 LT PUSH2 0xD21 JUMPI PUSH2 0xD21 PUSH2 0x1207 JUMP JUMPDEST PUSH1 0x0 SWAP2 DUP3 MSTORE PUSH1 0x20 DUP3 KECCAK256 PUSH1 0x2 SWAP1 SWAP2 MUL ADD SLOAD PUSH1 0x40 MLOAD PUSH1 0x1 PUSH1 0x1 PUSH1 0xA0 SHL SUB SWAP1 SWAP2 AND SWAP2 DUP5 SWAP2 SWAP1 DUP2 DUP2 DUP2 DUP6 DUP8 GAS CALL SWAP3 POP POP POP RETURNDATASIZE DUP1 PUSH1 0x0 DUP2 EQ PUSH2 0xD7A JUMPI PUSH1 0x40 MLOAD SWAP2 POP PUSH1 0x1F NOT PUSH1 0x3F RETURNDATASIZE ADD AND DUP3 ADD PUSH1 0x40 MSTORE RETURNDATASIZE DUP3 MSTORE RETURNDATASIZE PUSH1 0x0 PUSH1 0x20 DUP5 ADD RETURNDATACOPY PUSH2 0xD7F JUMP JUMPDEST PUSH1 0x60 SWAP2 POP JUMPDEST POP POP SWAP1 POP DUP1 PUSH2 0xDA1 JUMPI PUSH1 0x40 MLOAD PUSH4 0x12171D83 PUSH1 0xE3 SHL DUP2 MSTORE PUSH1 0x4 ADD PUSH1 0x40 MLOAD DUP1 SWAP2 SUB SWAP1 REVERT JUMPDEST DUP10 DUP6 DUP2 SLOAD DUP2 LT PUSH2 0xDB3 JUMPI PUSH2 0xDB3 PUSH2 0x1207 JUMP JUMPDEST PUSH1 0x0 SWAP2 DUP3 MSTORE PUSH1 0x20 SWAP2 DUP3 SWAP1 KECCAK256 PUSH1 0x2 SWAP1 SWAP2 MUL ADD SLOAD PUSH1 0x40 MLOAD DUP5 DUP2 MSTORE PUSH1 0x1 PUSH1 0x1 PUSH1 0xA0 SHL SUB SWAP1 SWAP2 AND SWAP2 PUSH32 0xE34918FF1C7084970068B53FD71AD6D8B04E9F15D3886CBF006443E6CDC52EA6 SWAP2 ADD PUSH1 0x40 MLOAD DUP1 SWAP2 SUB SWAP1 LOG2 POP JUMPDEST POP POP POP DUP1 DUP1 PUSH2 0xE12 SWAP1 PUSH2 0x11D7 JUMP JUMPDEST SWAP2 POP POP PUSH2 0xC81 JUMP JUMPDEST POP JUMPDEST POP JUMPDEST PUSH1 0x4 DUP7 ADD DUP1 SLOAD PUSH1 0xFF NOT AND PUSH1 0x1 OR SWAP1 SSTORE PUSH1 0x40 MLOAD DUP11 SWAP1 PUSH32 0x579E7F72F41084C4072560A3D26FFA8C9361DEBCA741683EE5F7F2CF9A461A53 SWAP1 PUSH2 0xE5F SWAP1 DUP6 SWAP1 PUSH2 0x1252 JUMP JUMPDEST PUSH1 0x40 MLOAD DUP1 SWAP2 SUB SWAP1 LOG2 POP POP POP POP POP POP POP POP PUSH2 0x693 PUSH1 0x1 PUSH1 0x0 SSTORE JUMP JUMPDEST PUSH1 0x60 DUP2 DUP1 ISZERO DUP1 PUSH2 0xE8B JUMPI POP PUSH1 0x3 SLOAD DUP2 LT ISZERO JUMPDEST ISZERO PUSH2 0xEA9 JUMPI PUSH1 0x40 MLOAD PUSH4 0x7313C09D PUSH1 0xE0 SHL DUP2 MSTORE PUSH1 0x4 ADD PUSH1 0x40 MLOAD DUP1 SWAP2 SUB SWAP1 REVERT JUMPDEST PUSH1 0x0 DUP4 DUP2 MSTORE PUSH1 0x2 PUSH1 0x20 SWAP1 DUP2 MSTORE PUSH1 0x40 DUP1 DUP4 KECCAK256 PUSH1 0x7 ADD DUP1 SLOAD DUP3 MLOAD DUP2 DUP6 MUL DUP2 ADD DUP6 ADD SWAP1 SWAP4 MSTORE DUP1 DUP4 MSTORE SWAP2 SWAP4 SWAP1 SWAP3 DUP5 ADD DUP3 ISZERO PUSH2 0x478 JUMPI PUSH1 0x0 DUP5 DUP2 MSTORE PUSH1 0x20 SWAP1 DUP2 SWAP1 KECCAK256 PUSH1 0x40 DUP1 MLOAD DUP1 DUP3 ADD SWAP1 SWAP2 MSTORE PUSH1 0x2 DUP6 MUL SWAP1 SWAP2 ADD DUP1 SLOAD PUSH1 0x1 PUSH1 0x1 PUSH1 0xA0 SHL SUB AND DUP3 MSTORE PUSH1 0x1 SWAP1 DUP2 ADD SLOAD DUP3 DUP5 ADD MSTORE SWAP1 DUP4 MSTORE SWAP1 SWAP3 ADD SWAP2 ADD PUSH2 0x430 JUMP JUMPDEST PUSH2 0xF22 PUSH2 0xF84 JUMP JUMPDEST PUSH1 0x1 PUSH1 0x1 PUSH1 0xA0 SHL SUB DUP2 AND PUSH2 0xF51 JUMPI PUSH1 0x40 MLOAD PUSH4 0x1E4FBDF7 PUSH1 0xE0 SHL DUP2 MSTORE PUSH1 0x0 PUSH1 0x4 DUP3 ADD MSTORE PUSH1 0x24 ADD JUMPDEST PUSH1 0x40 MLOAD DUP1 SWAP2 SUB SWAP1 REVERT JUMPDEST PUSH2 0x89E DUP2 PUSH2 0xFB1 JUMP JUMPDEST PUSH1 0x2 PUSH1 0x0 SLOAD SUB PUSH2 0xF7D JUMPI PUSH1 0x40 MLOAD PUSH4 0x3EE5AEB5 PUSH1 0xE0 SHL DUP2 MSTORE PUSH1 0x4 ADD PUSH1 0x40 MLOAD DUP1 SWAP2 SUB SWAP1 REVERT JUMPDEST PUSH1 0x2 PUSH1 0x0 SSTORE JUMP JUMPDEST PUSH1 0x1 SLOAD PUSH1 0x1 PUSH1 0x1 PUSH1 0xA0 SHL SUB AND CALLER EQ PUSH2 0x8B3 JUMPI PUSH1 0x40 MLOAD PUSH4 0x118CDAA7 PUSH1 0xE0 SHL DUP2 MSTORE CALLER PUSH1 0x4 DUP3 ADD MSTORE PUSH1 0x24 ADD PUSH2 0xF48 JUMP JUMPDEST PUSH1 0x1 DUP1 SLOAD PUSH1 0x1 PUSH1 0x1 PUSH1 0xA0 SHL SUB DUP4 DUP2 AND PUSH1 0x1 PUSH1 0x1 PUSH1 0xA0 SHL SUB NOT DUP4 AND DUP2 OR SWAP1 SWAP4 SSTORE PUSH1 0x40 MLOAD SWAP2 AND SWAP2 SWAP1 DUP3 SWAP1 PUSH32 0x8BE0079C531659141344CD1FD0A4F28419497F9722A3DAAFE3B4186F6B6457E0 SWAP1 PUSH1 0x0 SWAP1 LOG3 POP POP JUMP JUMPDEST PUSH4 0x4E487B71 PUSH1 0xE0 SHL PUSH1 0x0 MSTORE PUSH1 0x11 PUSH1 0x4 MSTORE PUSH1 0x24 PUSH1 0x0 REVERT JUMPDEST DUP1 DUP3 ADD DUP1 DUP3 GT ISZERO PUSH2 0x102C JUMPI PUSH2 0x102C PUSH2 0x1003 JUMP JUMPDEST SWAP3 SWAP2 POP POP JUMP JUMPDEST PUSH1 0x0 PUSH1 0x20 DUP3 DUP5 SUB SLT ISZERO PUSH2 0x1044 JUMPI PUSH1 0x0 DUP1 REVERT JUMPDEST POP CALLDATALOAD SWAP2 SWAP1 POP JUMP JUMPDEST PUSH1 0x20 DUP1 DUP3 MSTORE DUP3 MLOAD DUP3 DUP3 ADD DUP2 SWAP1 MSTORE PUSH1 0x0 SWAP2 SWAP1 PUSH1 0x40 SWAP1 DUP2 DUP6 ADD SWAP1 DUP7 DUP5 ADD DUP6 JUMPDEST DUP3 DUP2 LT ISZERO PUSH2 0x1096 JUMPI DUP2 MLOAD DUP1 MLOAD PUSH1 0x1 PUSH1 0x1 PUSH1 0xA0 SHL SUB AND DUP6 MSTORE DUP7 ADD MLOAD DUP7 DUP6 ADD MSTORE SWAP3 DUP5 ADD SWAP3 SWAP1 DUP6 ADD SWAP1 PUSH1 0x1 ADD PUSH2 0x1068 JUMP JUMPDEST POP SWAP2 SWAP8 SWAP7 POP POP POP POP POP POP POP JUMP JUMPDEST PUSH1 0x0 DUP1 PUSH1 0x0 PUSH1 0x60 DUP5 DUP7 SUB SLT ISZERO PUSH2 0x10B8 JUMPI PUSH1 0x0 DUP1 REVERT JUMPDEST POP POP DUP2 CALLDATALOAD SWAP4 PUSH1 0x20 DUP4 ADD CALLDATALOAD SWAP4 POP PUSH1 0x40 SWAP1 SWAP3 ADD CALLDATALOAD SWAP2 SWAP1 POP JUMP JUMPDEST PUSH4 0x4E487B71 PUSH1 0xE0 SHL PUSH1 0x0 MSTORE PUSH1 0x21 PUSH1 0x4 MSTORE PUSH1 0x24 PUSH1 0x0 REVERT JUMPDEST PUSH1 0x2 DUP2 LT PUSH2 0x1103 JUMPI PUSH4 0x4E487B71 PUSH1 0xE0 SHL PUSH1 0x0 MSTORE PUSH1 0x21 PUSH1 0x4 MSTORE PUSH1 0x24 PUSH1 0x0 REVERT JUMPDEST SWAP1 MSTORE JUMP JUMPDEST PUSH1 0x0 PUSH2 0x100 DUP3 ADD SWAP1 POP DUP10 DUP3 MSTORE DUP9 PUSH1 0x20 DUP4 ADD MSTORE DUP8 PUSH1 0x40 DUP4 ADD MSTORE DUP7 PUSH1 0x60 DUP4 ADD MSTORE PUSH2 0x1132 PUSH1 0x80 DUP4 ADD DUP8 PUSH2 0x10E5 JUMP JUMPDEST DUP5 PUSH1 0xA0 DUP4 ADD MSTORE DUP4 PUSH1 0xC0 DUP4 ADD MSTORE DUP3 PUSH1 0xE0 DUP4 ADD MSTORE SWAP10 SWAP9 POP POP POP POP POP POP POP POP POP JUMP JUMPDEST PUSH1 0x0 PUSH1 0xC0 DUP3 ADD SWAP1 POP DUP8 DUP3 MSTORE DUP7 PUSH1 0x20 DUP4 ADD MSTORE DUP6 PUSH1 0x40 DUP4 ADD MSTORE DUP5 PUSH1 0x60 DUP4 ADD MSTORE PUSH2 0x117B PUSH1 0x80 DUP4 ADD DUP6 PUSH2 0x10E5 JUMP JUMPDEST DUP3 PUSH1 0xA0 DUP4 ADD MSTORE SWAP8 SWAP7 POP POP POP POP POP POP POP JUMP JUMPDEST PUSH1 0x0 DUP1 PUSH1 0x40 DUP4 DUP6 SUB SLT ISZERO PUSH2 0x119F JUMPI PUSH1 0x0 DUP1 REVERT JUMPDEST POP POP DUP1 CALLDATALOAD SWAP3 PUSH1 0x20 SWAP1 SWAP2 ADD CALLDATALOAD SWAP2 POP JUMP JUMPDEST PUSH1 0x0 PUSH1 0x20 DUP3 DUP5 SUB SLT ISZERO PUSH2 0x11C0 JUMPI PUSH1 0x0 DUP1 REVERT JUMPDEST DUP2 CALLDATALOAD PUSH1 0x1 PUSH1 0x1 PUSH1 0xA0 SHL SUB DUP2 AND DUP2 EQ PUSH2 0x5DE JUMPI PUSH1 0x0 DUP1 REVERT JUMPDEST PUSH1 0x0 PUSH1 0x1 DUP3 ADD PUSH2 0x11E9 JUMPI PUSH2 0x11E9 PUSH2 0x1003 JUMP JUMPDEST POP PUSH1 0x1 ADD SWAP1 JUMP JUMPDEST DUP1 DUP3 MUL DUP2 ISZERO DUP3 DUP3 DIV DUP5 EQ OR PUSH2 0x102C JUMPI PUSH2 0x102C PUSH2 0x1003 JUMP JUMPDEST PUSH4 0x4E487B71 PUSH1 0xE0 SHL PUSH1 0x0 MSTORE PUSH1 0x32 PUSH1 0x4 MSTORE PUSH1 0x24 PUSH1 0x0 REVERT JUMPDEST DUP2 DUP2 SUB DUP2 DUP2 GT ISZERO PUSH2 0x102C JUMPI PUSH2 0x102C PUSH2 0x1003 JUMP JUMPDEST PUSH1 0x0 DUP3 PUSH2 0x124D JUMPI PUSH4 0x4E487B71 PUSH1 0xE0 SHL PUSH1 0x0 MSTORE PUSH1 0x12 PUSH1 0x4 MSTORE PUSH1 0x24 PUSH1 0x0 REVERT JUMPDEST POP DIV SWAP1 JUMP JUMPDEST PUSH1 0x0 PUSH1 0x20 DUP1 DUP4 MSTORE DUP4 MLOAD DUP1 DUP3 DUP6 ADD MSTORE PUSH1 0x0 JUMPDEST DUP2 DUP2 LT ISZERO PUSH2 0x127F JUMPI DUP6 DUP2 ADD DUP4 ADD MLOAD DUP6 DUP3 ADD PUSH1 0x40 ADD MSTORE DUP3 ADD PUSH2 0x1263 JUMP JUMPDEST POP PUSH1 0x0 PUSH1 0x40 DUP3 DUP7 ADD ADD MSTORE PUSH1 0x40 PUSH1 0x1F NOT PUSH1 0x1F DUP4 ADD AND DUP6 ADD ADD SWAP3 POP POP POP SWAP3 SWAP2 POP POP JUMP INVALID LOG2 PUSH5 0x6970667358 0x22 SLT KECCAK256 0xE2 SELFDESTRUCT PUSH3 0xEF65B4 0x5C MSTORE 0xBE 0x5C DUP11 0xE4 SMOD 0xF6 0xC4 0xC8 0xC7 0xD2 0xC BYTE DUP13 SWAP9 0x26 0x24 0x1F PUSH23 0xB8450FC4790B64736F6C63430008140033000000000000 "},"methodIdentifiers":{"emergencyWithdraw(uint256)":"5312ea8e","fixedStakeAmount()":"5af01b91","getContractBalance()":"6f9fb98a","getMetric(uint256)":"582bd8f1","getStakesAgainst(uint256)":"dc6e4495","getStakesInFavor(uint256)":"04b8ba5b","isStakingActive(uint256)":"09eea131","metrics(uint256)":"6d9aac62","nextMetricID()":"3937066c","owner()":"8da5cb5b","renounceOwnership()":"715018a6","resolveMetric(uint256,uint256)":"98dea89c","stakeAgainst(uint256)":"7776eab6","stakeInFavor(uint256)":"6ec1b041","submitMetric(uint256,uint256,uint256)":"312c9e87","totalContractBalance()":"bac03cd7","transferOwnership(address)":"f2fde38b","updateFixedStakeAmount(uint256)":"7cabd293"}}}}}