{
  "_format": "hh-sol-artifact-1",
  "contractName": "MetricChallengeDAO",
  "sourceName": "contracts/MetricChallengeDAO.sol",
  "abi": [
    {
      "inputs": [
        {
          "internalType": "uint256",
          "name": "_fixedStakeAmount",
          "type": "uint256"
        }
      ],
      "stateMutability": "nonpayable",
      "type": "constructor"
    },
    {
      "inputs": [],
      "name": "InsufficientPayment",
      "type": "error"
    },
    {
      "inputs": [],
      "name": "InsufficientUpdateFee",
      "type": "error"
    },
    {
      "inputs": [],
      "name": "InvalidParameters",
      "type": "error"
    },
    {
      "inputs": [],
      "name": "InvalidPrice",
      "type": "error"
    },
    {
      "inputs": [],
      "name": "MetricAlreadyResolved",
      "type": "error"
    },
    {
      "inputs": [],
      "name": "MetricNotFound",
      "type": "error"
    },
    {
      "inputs": [
        {
          "internalType": "address",
          "name": "owner",
          "type": "address"
        }
      ],
      "name": "OwnableInvalidOwner",
      "type": "error"
    },
    {
      "inputs": [
        {
          "internalType": "address",
          "name": "account",
          "type": "address"
        }
      ],
      "name": "OwnableUnauthorizedAccount",
      "type": "error"
    },
    {
      "inputs": [],
      "name": "PriceTooStale",
      "type": "error"
    },
    {
      "inputs": [],
      "name": "ReentrancyGuardReentrantCall",
      "type": "error"
    },
    {
      "inputs": [],
      "name": "StakingPeriodOver",
      "type": "error"
    },
    {
      "inputs": [],
      "name": "TransferFailed",
      "type": "error"
    },
    {
      "inputs": [],
      "name": "UnsupportedCoin",
      "type": "error"
    },
    {
      "anonymous": false,
      "inputs": [
        {
          "indexed": true,
          "internalType": "uint256",
          "name": "metricID",
          "type": "uint256"
        },
        {
          "indexed": false,
          "internalType": "string",
          "name": "winningSide",
          "type": "string"
        }
      ],
      "name": "MetricResolved",
      "type": "event"
    },
    {
      "anonymous": false,
      "inputs": [
        {
          "indexed": true,
          "internalType": "uint256",
          "name": "metricID",
          "type": "uint256"
        },
        {
          "indexed": true,
          "internalType": "address",
          "name": "submitter",
          "type": "address"
        }
      ],
      "name": "MetricSubmitted",
      "type": "event"
    },
    {
      "anonymous": false,
      "inputs": [
        {
          "indexed": true,
          "internalType": "address",
          "name": "previousOwner",
          "type": "address"
        },
        {
          "indexed": true,
          "internalType": "address",
          "name": "newOwner",
          "type": "address"
        }
      ],
      "name": "OwnershipTransferred",
      "type": "event"
    },
    {
      "anonymous": false,
      "inputs": [
        {
          "indexed": true,
          "internalType": "address",
          "name": "staker",
          "type": "address"
        },
        {
          "indexed": false,
          "internalType": "uint256",
          "name": "amount",
          "type": "uint256"
        }
      ],
      "name": "RewardDistributed",
      "type": "event"
    },
    {
      "anonymous": false,
      "inputs": [
        {
          "indexed": false,
          "internalType": "uint256",
          "name": "newAmount",
          "type": "uint256"
        }
      ],
      "name": "StakeAmountUpdated",
      "type": "event"
    },
    {
      "anonymous": false,
      "inputs": [
        {
          "indexed": true,
          "internalType": "uint256",
          "name": "metricID",
          "type": "uint256"
        },
        {
          "indexed": true,
          "internalType": "address",
          "name": "staker",
          "type": "address"
        },
        {
          "indexed": false,
          "internalType": "string",
          "name": "side",
          "type": "string"
        }
      ],
      "name": "Staked",
      "type": "event"
    },
    {
      "stateMutability": "payable",
      "type": "fallback"
    },
    {
      "inputs": [
        {
          "internalType": "address",
          "name": "",
          "type": "address"
        }
      ],
      "name": "coinToPriceFeedId",
      "outputs": [
        {
          "internalType": "bytes32",
          "name": "",
          "type": "bytes32"
        }
      ],
      "stateMutability": "view",
      "type": "function"
    },
    {
      "inputs": [
        {
          "internalType": "uint256",
          "name": "amount",
          "type": "uint256"
        }
      ],
      "name": "emergencyWithdraw",
      "outputs": [],
      "stateMutability": "nonpayable",
      "type": "function"
    },
    {
      "inputs": [],
      "name": "fixedStakeAmount",
      "outputs": [
        {
          "internalType": "uint256",
          "name": "",
          "type": "uint256"
        }
      ],
      "stateMutability": "view",
      "type": "function"
    },
    {
      "inputs": [],
      "name": "getContractBalance",
      "outputs": [
        {
          "internalType": "uint256",
          "name": "",
          "type": "uint256"
        }
      ],
      "stateMutability": "view",
      "type": "function"
    },
    {
      "inputs": [
        {
          "internalType": "uint256",
          "name": "metricID",
          "type": "uint256"
        }
      ],
      "name": "getMetric",
      "outputs": [
        {
          "internalType": "uint256",
          "name": "id",
          "type": "uint256"
        },
        {
          "internalType": "uint256",
          "name": "expectedLossPercent",
          "type": "uint256"
        },
        {
          "internalType": "uint256",
          "name": "duration",
          "type": "uint256"
        },
        {
          "internalType": "uint256",
          "name": "startTime",
          "type": "uint256"
        },
        {
          "internalType": "enum MetricChallengeDAO.MetricStatus",
          "name": "status",
          "type": "uint8"
        },
        {
          "internalType": "uint256",
          "name": "bountyCollateral",
          "type": "uint256"
        },
        {
          "internalType": "uint256",
          "name": "stakesInFavorCount",
          "type": "uint256"
        },
        {
          "internalType": "uint256",
          "name": "stakesAgainstCount",
          "type": "uint256"
        }
      ],
      "stateMutability": "view",
      "type": "function"
    },
    {
      "inputs": [
        {
          "internalType": "uint256",
          "name": "metricID",
          "type": "uint256"
        }
      ],
      "name": "getStakesAgainst",
      "outputs": [
        {
          "components": [
            {
              "internalType": "address",
              "name": "staker",
              "type": "address"
            },
            {
              "internalType": "uint256",
              "name": "timestamp",
              "type": "uint256"
            }
          ],
          "internalType": "struct MetricChallengeDAO.Stake[]",
          "name": "",
          "type": "tuple[]"
        }
      ],
      "stateMutability": "view",
      "type": "function"
    },
    {
      "inputs": [
        {
          "internalType": "uint256",
          "name": "metricID",
          "type": "uint256"
        }
      ],
      "name": "getStakesInFavor",
      "outputs": [
        {
          "components": [
            {
              "internalType": "address",
              "name": "staker",
              "type": "address"
            },
            {
              "internalType": "uint256",
              "name": "timestamp",
              "type": "uint256"
            }
          ],
          "internalType": "struct MetricChallengeDAO.Stake[]",
          "name": "",
          "type": "tuple[]"
        }
      ],
      "stateMutability": "view",
      "type": "function"
    },
    {
      "inputs": [
        {
          "internalType": "uint256",
          "name": "metricID",
          "type": "uint256"
        }
      ],
      "name": "isStakingActive",
      "outputs": [
        {
          "internalType": "bool",
          "name": "",
          "type": "bool"
        }
      ],
      "stateMutability": "view",
      "type": "function"
    },
    {
      "inputs": [
        {
          "internalType": "uint256",
          "name": "",
          "type": "uint256"
        }
      ],
      "name": "metrics",
      "outputs": [
        {
          "internalType": "uint256",
          "name": "id",
          "type": "uint256"
        },
        {
          "internalType": "address",
          "name": "coinAddress",
          "type": "address"
        },
        {
          "internalType": "uint256",
          "name": "expectedLossPercent",
          "type": "uint256"
        },
        {
          "internalType": "uint256",
          "name": "duration",
          "type": "uint256"
        },
        {
          "internalType": "uint256",
          "name": "startTime",
          "type": "uint256"
        },
        {
          "internalType": "enum MetricChallengeDAO.MetricStatus",
          "name": "status",
          "type": "uint8"
        },
        {
          "internalType": "uint256",
          "name": "bountyCollateral",
          "type": "uint256"
        }
      ],
      "stateMutability": "view",
      "type": "function"
    },
    {
      "inputs": [],
      "name": "nextMetricID",
      "outputs": [
        {
          "internalType": "uint256",
          "name": "",
          "type": "uint256"
        }
      ],
      "stateMutability": "view",
      "type": "function"
    },
    {
      "inputs": [],
      "name": "owner",
      "outputs": [
        {
          "internalType": "address",
          "name": "",
          "type": "address"
        }
      ],
      "stateMutability": "view",
      "type": "function"
    },
    {
      "inputs": [],
      "name": "pyth",
      "outputs": [
        {
          "internalType": "contract IPyth",
          "name": "",
          "type": "address"
        }
      ],
      "stateMutability": "view",
      "type": "function"
    },
    {
      "inputs": [
        {
          "internalType": "address",
          "name": "coinAddress",
          "type": "address"
        }
      ],
      "name": "removeSupportedCoin",
      "outputs": [],
      "stateMutability": "nonpayable",
      "type": "function"
    },
    {
      "inputs": [],
      "name": "renounceOwnership",
      "outputs": [],
      "stateMutability": "nonpayable",
      "type": "function"
    },
    {
      "inputs": [
        {
          "internalType": "uint256",
          "name": "metricID",
          "type": "uint256"
        }
      ],
      "name": "resolveMetric",
      "outputs": [],
      "stateMutability": "nonpayable",
      "type": "function"
    },
    {
      "inputs": [
        {
          "internalType": "address",
          "name": "coinAddress",
          "type": "address"
        },
        {
          "internalType": "bytes32",
          "name": "priceFeedId",
          "type": "bytes32"
        }
      ],
      "name": "setSupportedCoin",
      "outputs": [],
      "stateMutability": "nonpayable",
      "type": "function"
    },
    {
      "inputs": [
        {
          "internalType": "uint256",
          "name": "metricID",
          "type": "uint256"
        }
      ],
      "name": "stakeAgainst",
      "outputs": [],
      "stateMutability": "nonpayable",
      "type": "function"
    },
    {
      "inputs": [
        {
          "internalType": "uint256",
          "name": "metricID",
          "type": "uint256"
        }
      ],
      "name": "stakeInFavor",
      "outputs": [],
      "stateMutability": "nonpayable",
      "type": "function"
    },
    {
      "inputs": [
        {
          "internalType": "uint256",
          "name": "expectedLossPercent",
          "type": "uint256"
        },
        {
          "internalType": "uint256",
          "name": "duration",
          "type": "uint256"
        },
        {
          "internalType": "uint256",
          "name": "bountyCollateral",
          "type": "uint256"
        }
      ],
      "name": "submitMetric",
      "outputs": [
        {
          "internalType": "uint256",
          "name": "",
          "type": "uint256"
        }
      ],
      "stateMutability": "payable",
      "type": "function"
    },
    {
      "inputs": [],
      "name": "totalContractBalance",
      "outputs": [
        {
          "internalType": "uint256",
          "name": "",
          "type": "uint256"
        }
      ],
      "stateMutability": "view",
      "type": "function"
    },
    {
      "inputs": [
        {
          "internalType": "address",
          "name": "newOwner",
          "type": "address"
        }
      ],
      "name": "transferOwnership",
      "outputs": [],
      "stateMutability": "nonpayable",
      "type": "function"
    },
    {
      "inputs": [
        {
          "internalType": "uint256",
          "name": "newAmount",
          "type": "uint256"
        }
      ],
      "name": "updateFixedStakeAmount",
      "outputs": [],
      "stateMutability": "nonpayable",
      "type": "function"
    },
    {
      "stateMutability": "payable",
      "type": "receive"
    }
  ],
  "bytecode": "0x60a060405234801561001057600080fd5b5060405161175d38038061175d83398101604081905261002f916100db565b6001600055338061005a57604051631e4fbdf760e01b81526000600482015260240160405180910390fd5b61006381610089565b50600160035560045573dd24f84d36bf92c65f92307595c6b99d36b6f8c46080526100f4565b600180546001600160a01b038381166001600160a01b0319831681179093556040519116919082907f8be0079c531659141344cd1fd0a4f28419497f9722a3daafe3b4186f6b6457e090600090a35050565b6000602082840312156100ed57600080fd5b5051919050565b6080516116476101166000396000818161049c0152610cf901526116476000f3fe6080604052600436106101395760003560e01c80636f9fb98a116100ab5780638da5cb5b1161006f5780638da5cb5b146103e2578063b814181014610414578063bac03cd714610434578063dc6e44951461044a578063f2fde38b1461046a578063f98d06f01461048a57610158565b80636f9fb98a1461035a578063715018a61461036d5780637776eab6146103825780637cabd293146103a25780637fe09c7d146103c257610158565b80633937066c116100fd5780633937066c146102405780635312ea8e14610256578063582bd8f1146102765780635af01b91146102aa5780636d9aac62146102c05780636ec1b0411461033a57610158565b806304b8ba5b1461016a57806309eea131146101a057806313f2721b146101d05780631547d5c6146101f2578063312c9e871461022d57610158565b3661015857346005600082825461015091906112ab565b925050819055005b346005600082825461015091906112ab565b34801561017657600080fd5b5061018a6101853660046112c4565b6104be565b60405161019791906112dd565b60405180910390f35b3480156101ac57600080fd5b506101c06101bb3660046112c4565b61056e565b6040519015158152602001610197565b3480156101dc57600080fd5b506101f06101eb366004611351565b6105ee565b005b3480156101fe57600080fd5b5061021f61020d366004611351565b60066020526000908152604090205481565b604051908152602001610197565b61021f61023b36600461136c565b610610565b34801561024c57600080fd5b5061021f60035481565b34801561026257600080fd5b506101f06102713660046112c4565b6106ef565b34801561028257600080fd5b506102966102913660046112c4565b6107a1565b6040516101979897969594939291906113d0565b3480156102b657600080fd5b5061021f60045481565b3480156102cc57600080fd5b506103276102db3660046112c4565b6002602081905260009182526040909120805460018201549282015460038301546004840154600585015460069095015493956001600160a01b03169492939192909160ff9091169087565b604051610197979695949392919061141a565b34801561034657600080fd5b506101f06103553660046112c4565b610827565b34801561036657600080fd5b504761021f565b34801561037957600080fd5b506101f06109aa565b34801561038e57600080fd5b506101f061039d3660046112c4565b6109be565b3480156103ae57600080fd5b506101f06103bd3660046112c4565b610b2d565b3480156103ce57600080fd5b506101f06103dd366004611464565b610b91565b3480156103ee57600080fd5b506001546001600160a01b03165b6040516001600160a01b039091168152602001610197565b34801561042057600080fd5b506101f061042f3660046112c4565b610be7565b34801561044057600080fd5b5061021f60055481565b34801561045657600080fd5b5061018a6104653660046112c4565b61110b565b34801561047657600080fd5b506101f0610485366004611351565b6111ac565b34801561049657600080fd5b506103fc7f000000000000000000000000000000000000000000000000000000000000000081565b6060818015806104d057506003548110155b156104ee57604051637313c09d60e01b815260040160405180910390fd5b600083815260026020908152604080832060070180548251818502810185019093528083529193909284015b82821015610562576000848152602090819020604080518082019091526002850290910180546001600160a01b0316825260019081015482840152908352909201910161051a565b50505050915050919050565b60008180158061058057506003548110155b1561059e57604051637313c09d60e01b815260040160405180910390fd5b6000838152600260205260409020600381015460048201546105c091906112ab565b421080156105e657506000600582015460ff1660018111156105e4576105e4611398565b145b949350505050565b6105f66111ec565b6001600160a01b0316600090815260066020526040812055565b600061061a611219565b612710841180610628575082155b1561064657604051630e52390960e41b815260040160405180910390fd5b600380546000818152600260208190526040822083815590810188905580840187905542600482015560058101805460ff1916905560068101869055835492939092916106928361148e565b919050555083600560008282546106a991906112ab565b9091555050604051339083907f476f7bdb10d30e2de6d06e5d144c76d3963482c10f097a5048c401c84d1a102590600090a35090506106e86001600055565b9392505050565b6106f76111ec565b478111156107185760405163cd1c886760e01b815260040160405180910390fd5b600061072c6001546001600160a01b031690565b6001600160a01b03168260405160006040518083038185875af1925050503d8060008114610776576040519150601f19603f3d011682016040523d82523d6000602084013e61077b565b606091505b505090508061079d576040516312171d8360e31b815260040160405180910390fd5b5050565b600080808080808080888015806107ba57506003548110155b156107d857604051637313c09d60e01b815260040160405180910390fd5b50505060009687525050600260208190526040909520805495810154600382015460048301546005840154600685015460078601546008909601549a9b949a93995091975060ff169550935090565b61082f611219565b8080158061083f57506003548110155b1561085d57604051637313c09d60e01b815260040160405180910390fd5b600082815260026020526040902060038101546004820154849291610881916112ab565b42106108a0576040516376d3a56d60e01b815260040160405180910390fd5b836000808281526002602052604090206005015460ff1660018111156108c8576108c8611398565b146108e657604051632d2d860f60e11b815260040160405180910390fd5b60008581526002602081815260408084208151808301835233808252428286019081526007808501805460018082018355918b529988902094519990980290930180546001600160a01b0319166001600160a01b039099169890981788555196909501959095558151838152928301949094526624b72330bb37b960c91b9082015287907f245f82ed859b3e07a5d069ab3f24df4501aee89bf3fbd10d605980e17c115bef906060015b60405180910390a350505050506109a76001600055565b50565b6109b26111ec565b6109bc6000611243565b565b6109c6611219565b808015806109d657506003548110155b156109f457604051637313c09d60e01b815260040160405180910390fd5b600082815260026020526040902060038101546004820154849291610a18916112ab565b4210610a37576040516376d3a56d60e01b815260040160405180910390fd5b836000808281526002602052604090206005015460ff166001811115610a5f57610a5f611398565b14610a7d57604051632d2d860f60e11b815260040160405180910390fd5b600085815260026020818152604080842081518083018352338082524282860190815260088401805460018082018355918a529887902093519890970290920180546001600160a01b0319166001600160a01b03909816979097178755905195909401949094558051828152600792810192909252661059d85a5b9cdd60ca1b9082015287907f245f82ed859b3e07a5d069ab3f24df4501aee89bf3fbd10d605980e17c115bef90606001610990565b610b356111ec565b80600003610b5657604051630e52390960e41b815260040160405180910390fd5b60048190556040518181527fc3869fc4914caa4e69064c93dc69ce5b5b73da5a26717b551e7b6b23f2db9b1b9060200160405180910390a150565b610b996111ec565b6001600160a01b0382161580610bad575080155b15610bcb57604051630e52390960e41b815260040160405180910390fd5b6001600160a01b03909116600090815260066020526040902055565b610bef611219565b80801580610bff57506003548110155b15610c1d57604051637313c09d60e01b815260040160405180910390fd5b816000808281526002602052604090206005015460ff166001811115610c4557610c45611398565b14610c6357604051632d2d860f60e11b815260040160405180910390fd5b600083815260026020526040902060038101546004820154610c8591906112ab565b421015610ca5576040516376d3a56d60e01b815260040160405180910390fd5b60018101546001600160a01b031660009081526006602052604090205480610ce057604051633312127960e01b815260040160405180910390fd5b6040516396834ad360e01b8152600481018290526000907f00000000000000000000000000000000000000000000000000000000000000006001600160a01b0316906396834ad390602401608060405180830381865afa158015610d48573d6000803e3d6000fd5b505050506040513d601f19601f82011682018060405250810190610d6c91906114d1565b90506000816000015160070b13610d955760405162bfc92160e01b815260040160405180910390fd5b61012c816060015142610da89190611561565b1115610dc757604051632e0942d960e21b815260040160405180910390fd5b80518060006002860154811015600081610de45787600801610de9565b876007015b9050600082610dfb5788600701610e00565b886008015b9050600083610e2e57604051806040016040528060078152602001661059d85a5b9cdd60ca1b815250610e4f565b6040518060400160405280600781526020016624b72330bb37b960c91b8152505b6004548354919250600091610e649190611574565b8b60060154610e7391906112ab565b845490915015801590610e865750600081115b156110ab576000805b8554811015610f045760008d60040154878381548110610eb157610eb16115ad565b906000526020600020906002020160010154610ecd9190611561565b90506000818f60030154610ee19190611561565b9050610eed81856112ab565b935050508080610efc9061148e565b915050610e8f565b5080156110a95760005b85548110156110a75760008d60040154878381548110610f3057610f306115ad565b906000526020600020906002020160010154610f4c9190611561565b90506000818f60030154610f609190611561565b9050600084610f6f8784611574565b610f79919061158b565b90508015611091578060056000828254610f939190611561565b925050819055506000898581548110610fae57610fae6115ad565b600091825260208220600290910201546040516001600160a01b039091169184919081818185875af1925050503d8060008114611007576040519150601f19603f3d011682016040523d82523d6000602084013e61100c565b606091505b505090508061102e576040516312171d8360e31b815260040160405180910390fd5b898581548110611040576110406115ad565b6000918252602091829020600290910201546040518481526001600160a01b03909116917fe34918ff1c7084970068b53fd71ad6d8b04e9f15d3886cbf006443e6cdc52ea6910160405180910390a2505b505050808061109f9061148e565b915050610f0e565b505b505b60058b01805460ff191660011790556040518e907f579e7f72f41084c4072560a3d26ffa8c9361debca741683ee5f7f2cf9a461a53906110ec9085906115c3565b60405180910390a2505050505050505050505050506109a76001600055565b60608180158061111d57506003548110155b1561113b57604051637313c09d60e01b815260040160405180910390fd5b600083815260026020908152604080832060080180548251818502810185019093528083529193909284018215610562576000848152602090819020604080518082019091526002850290910180546001600160a01b0316825260019081015482840152908352909201910161051a565b6111b46111ec565b6001600160a01b0381166111e357604051631e4fbdf760e01b8152600060048201526024015b60405180910390fd5b6109a781611243565b6001546001600160a01b031633146109bc5760405163118cdaa760e01b81523360048201526024016111da565b60026000540361123c57604051633ee5aeb560e01b815260040160405180910390fd5b6002600055565b600180546001600160a01b038381166001600160a01b0319831681179093556040519116919082907f8be0079c531659141344cd1fd0a4f28419497f9722a3daafe3b4186f6b6457e090600090a35050565b634e487b7160e01b600052601160045260246000fd5b808201808211156112be576112be611295565b92915050565b6000602082840312156112d657600080fd5b5035919050565b602080825282518282018190526000919060409081850190868401855b8281101561132857815180516001600160a01b031685528601518685015292840192908501906001016112fa565b5091979650505050505050565b80356001600160a01b038116811461134c57600080fd5b919050565b60006020828403121561136357600080fd5b6106e882611335565b60008060006060848603121561138157600080fd5b505081359360208301359350604090920135919050565b634e487b7160e01b600052602160045260246000fd5b600281106113cc57634e487b7160e01b600052602160045260246000fd5b9052565b6000610100820190508982528860208301528760408301528660608301526113fb60808301876113ae565b8460a08301528360c08301528260e08301529998505050505050505050565b8781526001600160a01b038716602082015260408101869052606081018590526080810184905260e0810161145260a08301856113ae565b8260c083015298975050505050505050565b6000806040838503121561147757600080fd5b61148083611335565b946020939093013593505050565b6000600182016114a0576114a0611295565b5060010190565b805167ffffffffffffffff8116811461134c57600080fd5b8051600381900b811461134c57600080fd5b6000608082840312156114e357600080fd5b6040516080810181811067ffffffffffffffff8211171561151457634e487b7160e01b600052604160045260246000fd5b6040528251600781900b811461152957600080fd5b8152611537602084016114a7565b6020820152611548604084016114bf565b6040820152606083015160608201528091505092915050565b818103818111156112be576112be611295565b80820281158282048414176112be576112be611295565b6000826115a857634e487b7160e01b600052601260045260246000fd5b500490565b634e487b7160e01b600052603260045260246000fd5b600060208083528351808285015260005b818110156115f0578581018301518582016040015282016115d4565b506000604082860101526040601f19601f830116850101925050509291505056fea2646970667358221220db198e87ba06224e37598f83f5175be8e9d2a2ea5b3cbc9e2cd6afe480f66e2b64736f6c63430008140033",
  "linkReferences": {},
  "deployedLinkReferences": {}
}