{
  "_format": "hh-sol-artifact-1",
  "contractName": "SimpleShortContract",
  "sourceName": "contracts/SimpleShortContract.sol",
  "abi": [
    {
      "inputs": [],
      "stateMutability": "nonpayable",
      "type": "constructor"
    },
    {
      "inputs": [],
      "name": "InsufficientCollateral",
      "type": "error"
    },
    {
      "inputs": [],
      "name": "InsufficientUpdateFee",
      "type": "error"
    },
    {
      "inputs": [],
      "name": "InvalidPrice",
      "type": "error"
    },
    {
      "inputs": [],
      "name": "NoActivePosition",
      "type": "error"
    },
    {
      "inputs": [
        {
          "internalType": "address",
          "name": "owner",
          "type": "address"
        }
      ],
      "name": "OwnableInvalidOwner",
      "type": "error"
    },
    {
      "inputs": [
        {
          "internalType": "address",
          "name": "account",
          "type": "address"
        }
      ],
      "name": "OwnableUnauthorizedAccount",
      "type": "error"
    },
    {
      "inputs": [],
      "name": "PositionAlreadyExists",
      "type": "error"
    },
    {
      "inputs": [],
      "name": "PriceTooStale",
      "type": "error"
    },
    {
      "inputs": [],
      "name": "ReentrancyGuardReentrantCall",
      "type": "error"
    },
    {
      "inputs": [],
      "name": "TransferFailed",
      "type": "error"
    },
    {
      "anonymous": false,
      "inputs": [
        {
          "indexed": true,
          "internalType": "address",
          "name": "owner",
          "type": "address"
        },
        {
          "indexed": false,
          "internalType": "uint256",
          "name": "amount",
          "type": "uint256"
        }
      ],
      "name": "EmergencyWithdraw",
      "type": "event"
    },
    {
      "anonymous": false,
      "inputs": [
        {
          "indexed": true,
          "internalType": "address",
          "name": "previousOwner",
          "type": "address"
        },
        {
          "indexed": true,
          "internalType": "address",
          "name": "newOwner",
          "type": "address"
        }
      ],
      "name": "OwnershipTransferred",
      "type": "event"
    },
    {
      "anonymous": false,
      "inputs": [
        {
          "indexed": true,
          "internalType": "address",
          "name": "user",
          "type": "address"
        },
        {
          "indexed": false,
          "internalType": "int256",
          "name": "pnl",
          "type": "int256"
        },
        {
          "indexed": false,
          "internalType": "int64",
          "name": "exitPrice",
          "type": "int64"
        },
        {
          "indexed": false,
          "internalType": "uint256",
          "name": "timestamp",
          "type": "uint256"
        }
      ],
      "name": "ShortClosed",
      "type": "event"
    },
    {
      "anonymous": false,
      "inputs": [
        {
          "indexed": true,
          "internalType": "address",
          "name": "user",
          "type": "address"
        },
        {
          "indexed": false,
          "internalType": "uint256",
          "name": "collateral",
          "type": "uint256"
        },
        {
          "indexed": false,
          "internalType": "int64",
          "name": "price",
          "type": "int64"
        },
        {
          "indexed": false,
          "internalType": "uint256",
          "name": "timestamp",
          "type": "uint256"
        }
      ],
      "name": "ShortOpened",
      "type": "event"
    },
    {
      "stateMutability": "payable",
      "type": "fallback"
    },
    {
      "inputs": [
        {
          "internalType": "bytes[]",
          "name": "priceUpdateData",
          "type": "bytes[]"
        }
      ],
      "name": "closeShort",
      "outputs": [],
      "stateMutability": "payable",
      "type": "function"
    },
    {
      "inputs": [
        {
          "internalType": "uint256",
          "name": "amount",
          "type": "uint256"
        }
      ],
      "name": "emergencyWithdraw",
      "outputs": [],
      "stateMutability": "nonpayable",
      "type": "function"
    },
    {
      "inputs": [],
      "name": "getContractInfo",
      "outputs": [
        {
          "internalType": "uint256",
          "name": "totalBalance",
          "type": "uint256"
        },
        {
          "internalType": "address",
          "name": "pythContract",
          "type": "address"
        },
        {
          "internalType": "bytes32",
          "name": "priceId",
          "type": "bytes32"
        }
      ],
      "stateMutability": "view",
      "type": "function"
    },
    {
      "inputs": [],
      "name": "getCurrentPrice",
      "outputs": [
        {
          "internalType": "int64",
          "name": "price",
          "type": "int64"
        },
        {
          "internalType": "uint64",
          "name": "timestamp",
          "type": "uint64"
        }
      ],
      "stateMutability": "view",
      "type": "function"
    },
    {
      "inputs": [
        {
          "internalType": "address",
          "name": "user",
          "type": "address"
        }
      ],
      "name": "getPosition",
      "outputs": [
        {
          "components": [
            {
              "internalType": "uint256",
              "name": "collateralAmount",
              "type": "uint256"
            },
            {
              "internalType": "int64",
              "name": "entryPrice",
              "type": "int64"
            },
            {
              "internalType": "uint256",
              "name": "timestamp",
              "type": "uint256"
            },
            {
              "internalType": "bool",
              "name": "active",
              "type": "bool"
            }
          ],
          "internalType": "struct SimpleShortContract.ShortPosition",
          "name": "position",
          "type": "tuple"
        }
      ],
      "stateMutability": "view",
      "type": "function"
    },
    {
      "inputs": [
        {
          "internalType": "bytes[]",
          "name": "priceUpdateData",
          "type": "bytes[]"
        }
      ],
      "name": "getUpdateFee",
      "outputs": [
        {
          "internalType": "uint256",
          "name": "fee",
          "type": "uint256"
        }
      ],
      "stateMutability": "view",
      "type": "function"
    },
    {
      "inputs": [
        {
          "internalType": "address",
          "name": "user",
          "type": "address"
        }
      ],
      "name": "hasActivePosition",
      "outputs": [
        {
          "internalType": "bool",
          "name": "hasPosition",
          "type": "bool"
        }
      ],
      "stateMutability": "view",
      "type": "function"
    },
    {
      "inputs": [
        {
          "internalType": "bytes[]",
          "name": "priceUpdateData",
          "type": "bytes[]"
        }
      ],
      "name": "openShort",
      "outputs": [],
      "stateMutability": "payable",
      "type": "function"
    },
    {
      "inputs": [],
      "name": "owner",
      "outputs": [
        {
          "internalType": "address",
          "name": "",
          "type": "address"
        }
      ],
      "stateMutability": "view",
      "type": "function"
    },
    {
      "inputs": [
        {
          "internalType": "address",
          "name": "",
          "type": "address"
        }
      ],
      "name": "positions",
      "outputs": [
        {
          "internalType": "uint256",
          "name": "collateralAmount",
          "type": "uint256"
        },
        {
          "internalType": "int64",
          "name": "entryPrice",
          "type": "int64"
        },
        {
          "internalType": "uint256",
          "name": "timestamp",
          "type": "uint256"
        },
        {
          "internalType": "bool",
          "name": "active",
          "type": "bool"
        }
      ],
      "stateMutability": "view",
      "type": "function"
    },
    {
      "inputs": [],
      "name": "pyth",
      "outputs": [
        {
          "internalType": "contract IPyth",
          "name": "",
          "type": "address"
        }
      ],
      "stateMutability": "view",
      "type": "function"
    },
    {
      "inputs": [],
      "name": "renounceOwnership",
      "outputs": [],
      "stateMutability": "nonpayable",
      "type": "function"
    },
    {
      "inputs": [
        {
          "internalType": "address",
          "name": "newOwner",
          "type": "address"
        }
      ],
      "name": "transferOwnership",
      "outputs": [],
      "stateMutability": "nonpayable",
      "type": "function"
    },
    {
      "inputs": [
        {
          "internalType": "address",
          "name": "user",
          "type": "address"
        }
      ],
      "name": "viewPnL",
      "outputs": [
        {
          "internalType": "int256",
          "name": "pnl",
          "type": "int256"
        },
        {
          "internalType": "int64",
          "name": "currentPrice",
          "type": "int64"
        },
        {
          "internalType": "int256",
          "name": "pnlPercentage",
          "type": "int256"
        }
      ],
      "stateMutability": "view",
      "type": "function"
    },
    {
      "stateMutability": "payable",
      "type": "receive"
    }
  ],
  "bytecode": "0x60a060405234801561001057600080fd5b506001600055338061003c57604051631e4fbdf760e01b81526000600482015260240160405180910390fd5b61004581610063565b5073dd24f84d36bf92c65f92307595c6b99d36b6f8c46080526100b5565b600180546001600160a01b038381166001600160a01b0319831681179093556040519116919082907f8be0079c531659141344cd1fd0a4f28419497f9722a3daafe3b4186f6b6457e090600090a35050565b608051611339610101600039600081816103040152818161049001528181610508015281816105ba01528181610ade01528181610b8f01528181610cff0152610dbc01526113396000f3fe6080604052600436106100e15760003560e01c806386e1ce5e1161007f578063d47eed4511610059578063d47eed45146103f8578063eb91d37e14610426578063f2fde38b1461045e578063f98d06f01461047e576100e8565b806386e1ce5e146103675780638da5cb5b1461037a57806393b57f99146103ac576100e8565b80635312ea8e116100bb5780635312ea8e1461025057806355f5751014610270578063715018a6146102df5780637cc1f867146102f4576100e8565b806316c197391461012a5780632eb99760146101fd57806336198eb914610212576100e8565b366100e857005b60405162461bcd60e51b8152602060048201526012602482015271119d5b98dd1a5bdb881b9bdd08199bdd5b9960721b60448201526064015b60405180910390fd5b34801561013657600080fd5b506101bc610145366004610f82565b604080516080810182526000808252602082018190529181018290526060810191909152506001600160a01b0316600090815260026020818152604092839020835160808101855281548152600182015460070b9281019290925291820154928101929092526003015460ff161515606082015290565b6040516101f491908151815260208083015160070b908201526040808301519082015260609182015115159181019190915260800190565b60405180910390f35b61021061020b366004610fb2565b6104b2565b005b34801561021e57600080fd5b5061023261022d366004610f82565b610862565b6040805193845260079290920b6020840152908201526060016101f4565b34801561025c57600080fd5b5061021061026b366004611027565b610913565b34801561027c57600080fd5b506102ba61028b366004610f82565b60026020819052600091825260409091208054600182015492820154600390920154909260070b919060ff1684565b6040805194855260079390930b602085015291830152151560608201526080016101f4565b3480156102eb57600080fd5b50610210610a4c565b34801561030057600080fd5b50477f00000000000000000000000000000000000000000000000000000000000000007fff61491a931112ddf1bd8147cd1b641375f79f5825126d665480874634fd0ace604080519384526001600160a01b039092166020840152908201526060016101f4565b610210610375366004610fb2565b610a60565b34801561038657600080fd5b506001546001600160a01b03165b6040516001600160a01b0390911681526020016101f4565b3480156103b857600080fd5b506103e86103c7366004610f82565b6001600160a01b031660009081526002602052604090206003015460ff1690565b60405190151581526020016101f4565b34801561040457600080fd5b50610418610413366004610fb2565b610ce5565b6040519081526020016101f4565b34801561043257600080fd5b5061043b610d80565b6040805160079390930b835267ffffffffffffffff9091166020830152016101f4565b34801561046a57600080fd5b50610210610479366004610f82565b610e9b565b34801561048a57600080fd5b506103947f000000000000000000000000000000000000000000000000000000000000000081565b6104ba610ed9565b336000908152600260205260409020600381015460ff166104ee57604051630cf2fcaf60e21b815260040160405180910390fd5b60405163d47eed4560e01b81526000906001600160a01b037f0000000000000000000000000000000000000000000000000000000000000000169063d47eed459061053f9087908790600401611069565b602060405180830381865afa15801561055c573d6000803e3d6000fd5b505050506040513d601f19601f820116820180604052508101906105809190611105565b9050803410156105a357604051637d7f926b60e01b815260040160405180910390fd5b604051631df3cbc560e31b81526001600160a01b037f0000000000000000000000000000000000000000000000000000000000000000169063ef9e5e289083906105f39088908890600401611069565b6000604051808303818588803b15801561060c57600080fd5b505af1158015610620573d6000803e3d6000fd5b5050505050600061062f610d80565b50600184015490915060009061064990839060070b611134565b6001850154600791820b92506000910b61066583612710611163565b61066f91906111a9565b905060006127108287600001546106869190611163565b61069091906111a9565b90506000808213156106e057865482906000906064906106b29060c8906111d7565b6106bc91906111ee565b9050808211156106ca578091505b88546106d7908390611202565b92505050610711565b60006106eb83611215565b885490915081106106ff576000915061070f565b875461070c908290611231565b91505b505b60038701805460ff19169055801561078e57604051600090339083908381818185875af1925050503d8060008114610765576040519150601f19603f3d011682016040523d82523d6000602084013e61076a565b606091505b505090508061078c576040516312171d8360e31b815260040160405180910390fd5b505b85341115610808576000336107a38834611231565b604051600081818185875af1925050503d80600081146107df576040519150601f19603f3d011682016040523d82523d6000602084013e6107e4565b606091505b5050905080610806576040516312171d8360e31b815260040160405180910390fd5b505b60408051838152600787900b60208201524281830152905133917f8f36bf8ad209b778c198ac14ac833b260f63cc14ef9dd9a6dfedef1106491592919081900360600190a25050505050505061085e6001600055565b5050565b6001600160a01b038116600090815260026020526040812060038101548291829160ff166108a357604051630cf2fcaf60e21b815260040160405180910390fd5b6108ab610d80565b5060018201549093506000906108c590859060070b611134565b6001830154600791820b9250900b6108df82612710611163565b6108e991906111a9565b92506127108383600001546108fe9190611163565b61090891906111a9565b945050509193909250565b61091b610f03565b60008115610929578161092b565b475b9050478111156109745760405162461bcd60e51b8152602060048201526014602482015273496e73756666696369656e742062616c616e636560601b6044820152606401610121565b60006109886001546001600160a01b031690565b6001600160a01b03168260405160006040518083038185875af1925050503d80600081146109d2576040519150601f19603f3d011682016040523d82523d6000602084013e6109d7565b606091505b50509050806109f9576040516312171d8360e31b815260040160405180910390fd5b6001546001600160a01b03166001600160a01b03167f5fafa99d0643513820be26656b45130b01e1c03062e1266bf36f88cbd3bd969583604051610a3f91815260200190565b60405180910390a2505050565b610a54610f03565b610a5e6000610f30565b565b610a68610ed9565b66038d7ea4c68000341015610a9057604051633a23d82560e01b815260040160405180910390fd5b3360009081526002602052604090206003015460ff1615610ac457604051630dd1bc8b60e31b815260040160405180910390fd5b60405163d47eed4560e01b81526000906001600160a01b037f0000000000000000000000000000000000000000000000000000000000000000169063d47eed4590610b159086908690600401611069565b602060405180830381865afa158015610b32573d6000803e3d6000fd5b505050506040513d601f19601f82011682018060405250810190610b569190611105565b9050803411610b7857604051637d7f926b60e01b815260040160405180910390fd5b604051631df3cbc560e31b81526001600160a01b037f0000000000000000000000000000000000000000000000000000000000000000169063ef9e5e28908390610bc89087908790600401611069565b6000604051808303818588803b158015610be157600080fd5b505af1158015610bf5573d6000803e3d6000fd5b50505050506000610c04610d80565b5090506000610c138334611231565b60408051608081018252828152600785900b602080830182815242848601818152600160608088018281523360008181526002808a52908c90209a518b559651938a01805467ffffffffffffffff191667ffffffffffffffff9095169490941790935592519488019490945590516003909601805460ff19169615159690961790955585518781529283019390935293810191909152929350917f91931fb6fdb7b87e2e5137745805e8584a7047067dbf59a30bcd96ddaf3f9875910160405180910390a250505061085e6001600055565b60405163d47eed4560e01b81526000906001600160a01b037f0000000000000000000000000000000000000000000000000000000000000000169063d47eed4590610d369086908690600401611069565b602060405180830381865afa158015610d53573d6000803e3d6000fd5b505050506040513d601f19601f82011682018060405250810190610d779190611105565b90505b92915050565b6040516396834ad360e01b81527fff61491a931112ddf1bd8147cd1b641375f79f5825126d665480874634fd0ace6004820152600090819081907f00000000000000000000000000000000000000000000000000000000000000006001600160a01b0316906396834ad390602401608060405180830381865afa158015610e0b573d6000803e3d6000fd5b505050506040513d601f19601f82011682018060405250810190610e2f9190611273565b90506000816000015160070b13610e585760405162bfc92160e01b815260040160405180910390fd5b61012c816060015142610e6b9190611231565b1115610e8a57604051632e0942d960e21b815260040160405180910390fd5b805160609091015190939092509050565b610ea3610f03565b6001600160a01b038116610ecd57604051631e4fbdf760e01b815260006004820152602401610121565b610ed681610f30565b50565b600260005403610efc57604051633ee5aeb560e01b815260040160405180910390fd5b6002600055565b6001546001600160a01b03163314610a5e5760405163118cdaa760e01b8152336004820152602401610121565b600180546001600160a01b038381166001600160a01b0319831681179093556040519116919082907f8be0079c531659141344cd1fd0a4f28419497f9722a3daafe3b4186f6b6457e090600090a35050565b600060208284031215610f9457600080fd5b81356001600160a01b0381168114610fab57600080fd5b9392505050565b60008060208385031215610fc557600080fd5b823567ffffffffffffffff80821115610fdd57600080fd5b818501915085601f830112610ff157600080fd5b81358181111561100057600080fd5b8660208260051b850101111561101557600080fd5b60209290920196919550909350505050565b60006020828403121561103957600080fd5b5035919050565b81835281816020850137506000828201602090810191909152601f909101601f19169091010190565b60208082528181018390526000906040600585901b8401810190840186845b878110156110f857868403603f190183528135368a9003601e190181126110ae57600080fd5b8901858101903567ffffffffffffffff8111156110ca57600080fd5b8036038213156110d957600080fd5b6110e4868284611040565b955050509184019190840190600101611088565b5091979650505050505050565b60006020828403121561111757600080fd5b5051919050565b634e487b7160e01b600052601160045260246000fd5b600782810b9082900b03677fffffffffffffff198112677fffffffffffffff82131715610d7a57610d7a61111e565b80820260008212600160ff1b8414161561117f5761117f61111e565b8181058314821517610d7a57610d7a61111e565b634e487b7160e01b600052601260045260246000fd5b6000826111b8576111b8611193565b600160ff1b8214600019841416156111d2576111d261111e565b500590565b8082028115828204841417610d7a57610d7a61111e565b6000826111fd576111fd611193565b500490565b80820180821115610d7a57610d7a61111e565b6000600160ff1b820161122a5761122a61111e565b5060000390565b81810381811115610d7a57610d7a61111e565b805167ffffffffffffffff8116811461125c57600080fd5b919050565b8051600381900b811461125c57600080fd5b60006080828403121561128557600080fd5b6040516080810181811067ffffffffffffffff821117156112b657634e487b7160e01b600052604160045260246000fd5b6040528251600781900b81146112cb57600080fd5b81526112d960208401611244565b60208201526112ea60408401611261565b604082015260608301516060820152809150509291505056fea264697066735822122080d82499b6a988f1d643647b94b20ba2093d979aacdf6c68a671ee0692ac952564736f6c63430008140033",
  "linkReferences": {},
  "deployedLinkReferences": {}
}